:200000000C9481000C94A9000C94A9000C94900A0C94900A0C94900A0C94A9000C94A900ED
:200020000C94A9000C94A9000C94A9000C94A9000C94A9000C94A9000C94A9000C94A90078
:200040000C94EE090C94A9000C945E0A0C94380A0C94A9000C94A9000C94A9000C94A900B2
:200060000C94A9000C94A9004E414E494E495459494E46CDCCCC3D0AD7233C17B7D1387777
:20008000CC2B329595E6241FB14F0A000020410000C84200401C4620BCBE4CCA1B0E5AAEEC
:2000A000C59D7400000000240027002A0000000008000201000003040700000000000000DC
:2000C000000000000023002600290000000000250028002B00040404040404040402020210
:2000E000020202030303030303010204081020408001020408102001020408102000660BFA
:20010000A01711241FBECFEFD8E0DEBFCDBF15E0A0E0B1E0E2EBFBE302C005900D92A230FE
:20012000B107D9F726E0A2E0B5E001C01D92A738B207E1F710E0C0E8D0E004C02197FE0177
:200140000E94571BCF37D107C9F70E94490C0C94CC1D0C9400009F92AF92BF92CF92DF9238
:20016000EF92FF920F931F93CF93DF93CDB7DEB728970FB6F894DEBF0FBECDBF95E0998395
:20018000D0900506DA82182F1F7710681B83CB01BA010E945D1B6C837D838E839F83F62FBD
:2001A000C72EB82EA92EB0E0A0E0E0E087E0982E25E03D2D412F5F2F6C2D7B2D8A2D90E0BB
:2001C0000A2F0E94661B38E08E2F90E0422F50E0BC01660F672F661F770B20FBEE24E0F809
:2001E000F12CEE0F6E157F0521F0880F991FE82FE92555954795242F315031F71896A8330E
:20020000B105B1F6E887F12CE12C29813A814B815C816D817E818F8198850E2D0E94661B62
:20022000622F8091FD059091FE05009741F0DC01ED91FC910190F081E02D099506C08091C2
:20024000FF0590910006009791F7B8E0EB0EF11C80E4E816F104C9F628960FB6F894DEBFF4
:200260000FBECDBFDF91CF911F910F91FF90EF90DF90CF90BF90AF909F90089540911506E3
:200280005091160660911706709118068CE60C94AB0040910C0650910D0660910E0670919A
:2002A0000F0680E10E94AB0090910D069F7180911106943190F0806880931106809114068D
:2002C000882369F04091100650911106609112067091130682E40C94AB008F77EDCF089508
:2002E000833081F028F4813099F08230A9F008958730A9F08830C9F08430B1F480918000F1
:200300008F7D03C0809180008F7780938000089584B58F7784BD089584B58F7DFBCF80910A
:20032000B0008F778093B00008958091B0008F7DF9CFCF93DF93282F30E0F901E355FF4F57
:200340008491F901E751FF4FD491F901EB52FF4FC491CC23A1F081110E947001EC2FF0E0B9
:20036000EE0FFF1FEF53FF4FA591B491EC91ED2381E090E009F480E0DF91CF91089580E0CF
:2003800090E0FACF1F93CF93DF93282F30E0F901E355FF4F8491F901E751FF4FD491F901C3
:2003A000EB52FF4FC491CC23A9F0162F81110E947001EC2FF0E0EE0FFF1FE553FF4FA59129
:2003C000B4918FB7F894EC91111108C0D095DE23DC938FBFDF91CF911F910895DE2BF8CF8F
:2003E000CF93DF9390E0FC01E751FF4F24918B529F4FFC0184918823C9F090E0880F991F81
:20040000FC01ED55FF4FA591B491FC01E553FF4FC591D49161110DC09FB7F8948C912095A3
:2004200082238C938881282328839FBFDF91CF910895623051F49FB7F8943C91822F8095E2
:2004400083238C93E8812E2BEFCF8FB7F894EC912E2B2C938FBFEACF3FB7F89480915C05F5
:2004600090915D05A0915E05B0915F0526B5A89B05C02F3F19F00196A11DB11D3FBFBA2F5C
:20048000A92F982F8827BC01CD01620F711D811D911D42E0660F771F881F991F4A95D1F705
:2004A00008958F929F92AF92BF92CF92DF92EF92FF926B017C010E942C024B015C01C114A0
:2004C000D104E104F104B9F00E942C02681979098A099B09683E73408105910580F321E0D1
:2004E000C21AD108E108F10888EE880E83E0981EA11CB11CE4CFFF90EF90DF90CF90BF90D8
:20050000AF909F908F9008952FB7F894609158057091590580915A0590915B052FBF089516
:20052000AF92BF92CF92DF92EF92FF920F931F93CF93DF936C017B018B01040F151FEB0175
:200540005E01AE18BF08C017D10759F06991D601ED91FC910190F081E02DC6010995892BB3
:2005600079F7C501DF91CF911F910F91FF90EF90DF90CF90BF90AF900895FC01538D448D70
:20058000252F30E0842F90E0821B930B541710F0CF96089501970895FC01918D828D98171E
:2005A00061F0A28DAE0FBF2FB11D5D968C91928D9F5F9F73928F90E008958FEF9FEF08952C
:2005C000FC01918D828D981731F0828DE80FF11D858D90E008958FEF9FEF0895FC01918D2A
:2005E000228D892F90E0805C9F4F821B91098F739927089580E695E00E94EE0221E0892BA2
:2006000009F420E0822F089580E090E0892B29F00E94FA0281110C9400000895FC01A48D57
:20062000A80FB92FB11DA35ABF4F2C91848D90E001968F739927848FA689B7892C93A08941
:20064000B1898C91837080648C93938D848D981306C00288F389E02D80818F7D80830895EB
:20066000EF92FF920F931F93CF93DF93EC0181E0888F9B8D8C8D98131AC0E889F989808121
:2006800085FF15C09FB7F894EE89FF896083E889F98980818370806480839FBF81E090E040
:2006A000DF91CF911F910F91FF90EF900895F62E0B8D10E00F5F1F4F0F731127E02E8C8D06
:2006C0008E110CC00FB607FCFACFE889F989808185FFF5CFCE010E940E03F1CFEB8DEC0F2D
:2006E000FD2FF11DE35AFF4FF0829FB7F8940B8FEA89FB8980818062CFCFCF93DF93EC010E
:20070000888D8823B9F0AA89BB89E889F9898C9185FD03C0808186FD0DC00FB607FCF7CFC5
:200720008C9185FFF2CF808185FFEDCFCE010E940E03E9CFDF91CF91089520916006309197
:2007400061062817390771F49091470580914805981741F0E0914705F0E0E95FFA4F808184
:2007600090E008958FEF9FEF08950895EF92FF920F931F93CF93DF93DC015C96ED90FC9014
:200780005D97E114F10479F481E090E013969C938E93129790E080E0DF91CF911F910F91AB
:2007A000FF90EF9008955196ED91FC91529750968C915097982F90950FB75E962C915E9771
:2007C000122F127021FD6095F8942081112319F1282B2083E7012197F1F728E0462F50E0AD
:2007E000308160FF1AC0382B3083E7012197F1F7BA0175956795215089F7112381F0808119
:20080000892380830FBF5C968D919C910197F1F781E090E0C1CF2923DCCF3923E5CF908125
:20082000892BEFCF20916006309161062817390761F4809148052091470590E0805C9F4F9E
:20084000821B91098F739927089590E080E00895209160063091610628173907B9F4909109
:20086000470580914805981789F0E0914705F0E0E95FFA4F80812091470530E02F5F3F4F5E
:200880002F7333272093470590E008958FEF9FEF089590E080E008950F931F93CF93DF9312
:2008A000EC0121E0260F6885621729F109851A859FEF960F70E060E059F0422F50E0542F38
:2008C000442741505109692F70E0CA010E94431BF8014C815D81CF01801B910B841795072D
:2008E00048F43081369FC001379F900D112490833196EFCF2887DF91CF911F910F910895C9
:200900008F929F92AF92BF92CF92DF92EF92FF92CF93DF93FC018281938168177907D8F55B
:200920004A01AA24BB24C32ED42EE52EFF24DC2DC22F8085982D882391F0C82FD0E0C89D9A
:20094000D001C99DB00DD89DB00D11249B2F8C9D60011124DD2D829F90011124C32FA685A5
:20096000218532858385A81321C0AB01440F551F640F751F620F731FA385A60FB72FB11D68
:200980009C93A485A60FB72FB11DDC938585680F711DFB01C083DF91CF91FF90EF90DF908C
:2009A000CF90BF90AF909F908F900895660F771F660F771F620F731FA60FB72FB11D1C922F
:2009C000DBCFCF92DF92EF92FF920F931F93CF93DF93CDB7DEB729970FB6F894DEBF0FBECD
:2009E000CDBF8C01DC0119968D919C91892B09F473C00E942C02F801C784D088E188F288D4
:200A00006C157D058E059F0520F46787708B818B928BF801C784D088E188F2886C197D09EC
:200A20008E099F096C3271408105910510F3F894D80114968D919C9115979A83898319962B
:200A4000ED91FC917F01BFEFEB1AFB0A80818987F80190810388F489E02DD80155968C9142
:200A6000992309F448C09081982B98879081809589238F838F818C8388E08B8358856F817C
:200A800049853B812C8189819A81D701508347FD252F3A952083262F39F0441F00C00000A4
:200AA0006083000000C0F2CF38E04D9160830000019761F7D8015496FC93EE93539749877C
:200AC0003B832C839A83898378940E942C02F8016787708B818B928B29960FB6F894DEBFEC
:200AE0000FBECDBFDF91CF911F910F91FF90EF90DF90CF9008959081982B988790818095EB
:200B000089238F838F818E8388E08D8358856F8149853D812E8189819A81D701508347FD62
:200B2000252F00C000C0208300C000C000C000C000C060830000262F3A9541F0441F0000E3
:200B400000C000C000C000C000C0E8CF38E04D9100C0608300C0019709F7D8015496FC93DB
:200B6000EE93539749873D832E83ACCFCF93DF93EC018E819F8197FD07C061E00E94F0012F
:200B800060E08E810E94C20181E08983DF91CF9108954F925F926F927F928F929F92AF9250
:200BA000BF92CF92DF92EF92FF920F931F93CF93DF932B013C0169017A010E9484024B0116
:200BC0005C01A701960160E074E284E799E40E94EE1B0E94671C613127E2720781059105FB
:200BE00020F060E177E280E090E0643671058105910520F464E670E080E090E06A5071099D
:200C0000660F771F660F771F8B0105501109C12CD12C7601C3E2D0E0C414D504E604F70477
:200C200019F161E080E10E94C201CE010197F1F760E080E10E94C201C8010197F1F78FEF87
:200C4000C81AD80AE80AF80A89E00E9499010197F1F00E948402681979098A099B096136C5
:200C60007A4E81059105C0F2C701B601DF91CF911F910F91FF90EF90DF90CF90BF90AF90D5
:200C80009F908F907F906F905F904F90089581E10E949901892BE9F664E670E080E090E0F2
:200CA0000E94510289E00E949901019791F6DCCF4F925F926F927F928F929F92AF92BF9208
:200CC000CF92DF92EF92FF926B017C0129013A0120E030E0A9010E948A1987FD6DC020E032
:200CE00030E04CE552E4C701B6010E94961C181634F4C12CD12C8CE5E82E82E4F82E809047
:200D00004A0590904B05A0904C05B0904D05A5019401C701B6010E94811B20E030E047ECC6
:200D200054E40E94F0190E94601C6B017C01C114D104E104F10491F161E01C141D041E040F
:200D40001F040CF060E081E10E94C201C701B601F7FE07C066277727CB016C197D098E0999
:200D60009F09A30192010E94C9051C141D041E041F0434F50E94911920E030E047EC54E49E
:200D80000E94EE1BA50194010E94821B60934A0570934B0580934C0590934D0581E0FF90D0
:200DA000EF90DF90CF90BF90AF909F908F907F906F905F904F900895C12CD12C76019FCFC2
:200DC0000E94911920E030E047EC54E40E94EE1B9B01AC01C501B4010E94811BD7CF8F92D8
:200DE0009F92AF92BF92CF92DF92EF92FF9249015A0123ED3EED40EE5DE30E94F0192091A2
:200E00004A0530914B0540914C0550914D050E94821B6B017C012DEC3CEC4CE45EE30E94A1
:200E20008A1987FD12C023E333E34FE052E4C701B6010E94961C181684F483E3C82EDC2C5B
:200E40008FE0E82E82E4F82E08C09DECC92E9CECD92E9CE4E92E9EE3F92EA5019401C70168
:200E6000B601FF90EF90DF90CF90BF90AF909F908F900C9458060F931F93CF93C82F809345
:200E80005205082F10E061E08BE00E94F0010115110519F560E08BE00E94C20180915205E3
:200EA000882309F461C08091530590915405A0915505B0915605892B8A2B8B2B51F40E9459
:200EC000840260935305709354058093550590935605CF911F910F9108950F3F110511F444
:200EE00061E0D9CFE8EBF0E0E491E33019F140F4E130B1F0E230C9F0003811058CF7CACFB9
:200F0000E73011F1E83041F1E430B1F78091800080628093800010938B0000938A00BECFD4
:200F200084B5806884BDC7BDB9CF84B5806284BDC8BDB4CF80918000806880938000109330
:200F4000890000938800AACF8091B00080688093B000C093B300A2CF8091B00080628093DB
:200F6000B000C093B4009ACF10925305109254051092550510925605ACCFCF92DF92EF9295
:200F8000FF92CF93DF936B017C01D0E0C0E08091200690912106C817D90748F4A7019601FA
:200FA000BE018EE196E00E9480042196F0CF8EE196E0DF91CF91FF90EF90DF90CF900C94C0
:200FC000E104FC0101900020E9F73197AF01481B590BBC0180E695E00C9490028F929F9243
:200FE000AF92BF920F931F93CF93DF93CDB7DEB7A1970FB6F894DEBF0FBECDBF19A2423072
:2010000008F44AE08E010F5D1F4F842E912CB12CA12CA50194010E94121BE62FB901CA0184
:20102000EA30F4F4E05DD801EE938D01232B242B252B79F790E080E0109719F0CD010E943C
:20104000E107A1960FB6F894DEBF0FBECDBFDF91CF911F910F91BF90AF909F908F90089591
:20106000E95CE1CFCF93DF930E94E107EC018AE291E00E94E1078C0F9D1FDF91CF91089505
:201080000C94E107811108C08DE391E00E9440088AE291E00C94E1078DE291E0F7CFCF9336
:2010A000DF93EC018DE491E00E944008CE010E9440088CE591E0DF91CF910C9432084F92DF
:2010C0005F926F927F928F929F92AF92BF92CF92DF92EF92FF920F931F93CF936B017C01A6
:2010E000742EAC019B010E949B1C882399F08FE591E0CF911F910F91FF90EF90DF90CF9007
:20110000BF90AF909F908F907F906F905F904F900C94E10746015701E894B7F82FEF3FEF79
:201120004FE75FE7C501B4010E949B1C81110DC02FEF3FEF4FE75FE7C501B4010E948A1978
:2011400018161CF483E691E0D4CF2FEF3FEF4FE75FE4C701B6010E94961C18161CF487E691
:2011600091E0C7CF2FEF3FEF4FE75FECC701B6010E948A1987FDF3CF20E030E0A901C7010F
:20118000B6010E948A1910E000E087FF0AC06DE280E695E00E9430038C01F7FAF094F7F843
:2011A000F094C0E060E070E080E09FE37C1641F020E030E040E251E40E94EE1BCF5FF6CFD1
:2011C000A70196010E94821B2B013C010E94671C4B015C014AE00E94EE077C01E00EF11E1F
:2011E000CC23C1F1C501B4010E948F199B01AC01C301B2010E94811B4B015C016EE280E62C
:2012000095E00E943003E80EF91EC15018F120E030E040E251E4C501B4010E94F0192B01A4
:201220003C010E94671C4B01B12CA12C4AE0C501B4010E94EE07E80EF91EC501B4010E94F0
:201240008F199B01AC01C301B2010E94811B4B015C01DBCFC701CF911F910F91FF90EF900F
:20126000DF90CF90BF90AF909F908F907F906F905F904F9008954F925F926F927F92AF9226
:20128000BF92CF92DF92EF92FF920F931F93CF93DF9300D000D000D0CDB7DEB77E836D8377
:2012A00029833A834B835C832701380181118AC08FE691E00E94400884E791E00E94400845
:2012C0008EE891E00E9440088D819E810E94400884E991E00E94400820E030E0A9016981BA
:2012E0007A818B819C810E948A19811113C020E030E0A901C301B2010E948A1981110AC04E
:2013000020E030E0A901C601B5010E948A19882309F440C086E791E00E94400888E791E001
:201320000E94400842E069817A818B819C810E945F0820E030E0A901C301B2010E948A1914
:20134000811109C020E030E0A901C601B5010E948A198823D9F086E791E00E94400842E058
:20136000C301B2010E945F0820E030E0A901C601B5010E948A19882349F086E791E00E940D
:20138000400842E0C601B5010E945F088EE791E00E9440088DE591E026960FB6F894DEBF00
:2013A0000FBECDBFDF91CF911F910F91FF90EF90DF90CF90BF90AF907F906F905F904F906E
:2013C0000C9432088BE691E075CFFC014481558170E060E0818592850C94C51D1F920F92F4
:2013E0000FB60F9211242F933F938F939F93AF93BF938091580590915905A0915A05B09118
:201400005B053091570523E0230F2D3758F50196A11DB11D20935705809358059093590546
:20142000A0935A05B0935B0580915C0590915D05A0915E05B0915F050196A11DB11D809313
:201440005C0590935D05A0935E05B0935F05BF91AF919F918F913F912F910F900FBE0F90EE
:201460001F90189526E8230F0296A11DB11DD2CF1F920F920FB60F9211242F933F934F93A8
:201480005F936F937F938F939F93AF93BF93EF93FF9380E695E00E940E03FF91EF91BF915C
:2014A000AF919F918F917F916F915F914F913F912F910F900FBE0F901F9018951F920F9273
:2014C0000FB60F9211242F938F939F93EF93FF93E0917005F09171058081E0917605F091FC
:2014E000770582FD1BC09081809179058F5F8F7320917A05821741F0E0917905F0E0E05A93
:20150000FA4F958F80937905FF91EF919F918F912F910F900FBE0F901F9018958081F4CF82
:201520001F920F920FB60F9211242F933F934F935F936F937F938F939F93AF93BF93EF93D8
:20154000FF93E0916006F0916106309749F0A685B7858585968D91FF14C09C918923A1F4D4
:20156000FF91EF91BF91AF919F918F917F916F915F914F913F912F910F900FBE0F901F9051
:2015800018959C91892361F7A389B4899C918589809589238C93868997890197F1F7608D4D
:2015A000718DA685B785558538E020E0CB010197F1F7822F90E095958795282F4C91452385
:2015C00009F02068315091F7868D81FD20958091480590E001968F739927309147053817B8
:2015E00099F0A0914805B0E0A95FBA4F2C9380934805828D938D0197F1F7A389B4898C91EF
:201600009589892B8C93ACCF868D8160868FF1CFCF92DF92EF92FF920F931F93CF93DF9389
:20162000EC016B01142F052F198218861F86188A198A1A8A83E08E8781E08B871C8692E014
:201640009D8788837B01EE0CFF1CEE0CFF1CFD82EC82C7010E94A01C9A878987009789F160
:20166000A70170E060E00E94C51DDB82CA821E830F838981882341F061E0812F0E94F00168
:2016800060E0812F0E94C201812F902FFC01EB52FF4FE491F0E0EE0FFF1FE553FF4F259162
:2016A00034913C8B2B8BFC01E751FF4FE491ED8BDF91CF911F910F91FF90EF90DF90CF907C
:2016C00008951D821C821B821A82D1CF109263051092620588EE93E0A0E0B0E080936405CF
:2016E00090936505A0936605B09367052AE031E0309361052093600525EC30E030936D055E
:2017000020936C0524EC30E030936F0520936E0520EC30E0309371052093700521EC30E08E
:20172000309373052093720522EC30E0309375052093740526EC30E030937705209376052E
:201740001092790510927A0510927B0510927C0510926506109264068093660690936706DB
:20176000A0936806B09369068CE191E09093630680936206109279061092780610927B06CD
:2017800010927A0610927D0610927C0610927F0610927E06609180066E7F6D7F60938006C8
:2017A0006695617081E068278FE00E94C20161E08FE00E94F001E8EFF0E0E491E09372064F
:2017C000E4EEF0E0E491F0E0EE0FFF1FE553FF4F85919491909374068093730660E08EE06F
:2017E0000E94F0018091800681FD04C061E08EE00E94C2018EE080936E06E7EFF0E0E49159
:20180000E0936F06E3EEF0E0E491F0E0EE0FFF1FEF53FF4F859194919093710680937006F1
:2018200083E0809319061092FE051092FD05109200061092FF0580E092ECA1E0B0E080937A
:20184000010690930206A0930306B0930406109205068FEF9FEF9093070680930606109223
:20186000140643E050E068E170E08EE196E00E94080B45E050E061E070E084E396E00E9463
:20188000080B46E050E061E070E08AE496E00C94080BCF93DF93CDB7DEB7C656D1090FB60F
:2018A000F894DEBF0FBECDBF789484B5826084BD84B5816084BD85B5826085BD85B581606A
:2018C00085BD80916E00816080936E00109281008091810082608093810080918100816047
:2018E00080938100809180008160809380008091B10084608093B1008091B0008160809330
:20190000B00080917A00846080937A0080917A00826080937A0080917A00816080937A0028
:2019200080917A00806880937A001092C100E0917005F091710582E08083E0916C05F0919F
:201940006D051082E0916E05F0916F0580E1808310927805E0917405F091750586E08083D9
:20196000E0917205F0917305808180618083E0917205F0917305808188608083E0917205EC
:20198000F0917305808180688083E0917205F091730580818F7D808388EE93E0A0E0B0E078
:2019A0008093640590936505A0936605B093670561E087E00E94F00184E396E00E94B6055C
:2019C00066E984E396E00E944C0484E396E00E94E1048AE496E00E94B60566E98AE496E011
:2019E0000E944C048AE496E00E94E10420E030E04FEF50E070E060E084E396E00E94800479
:201A000084E396E00E94E10464EF71E080E090E00E94510284E396E00E94E50984E396E0AF
:201A20000E94E10420E030E04FEF50E070E060E08AE496E00E9480048AE496E00E94E1049C
:201A400064EF71E080E090E00E9451028AE496E00E94E5098AE496E00E94E1048EE196E059
:201A60000E94B60566E98EE196E00E944C048EE196E00E94E10460E07FEF80E090E00E9457
:201A8000BD0764EF71E080E090E00E9451028EE196E00E94E5098EE196E00E94E10460E8F0
:201AA00070E0CB010E94BD0764EF71E080E090E00E9451028EE196E00E94E5098EE196E0E1
:201AC0000E94E10461E08BE00E94F00161E08BE00E94F00160E08BE00E94C20110925205F8
:201AE0001092530510925405109255051092560560E084E00E94F00161E084E00E94C201B7
:201B000084E00E9499018C01909351058093500561E0892B09F060E087E00E94C20110931A
:201B20004F0500934E0561E080E10E94F00161E081E10E94F00161E082E10E94F00160E089
:201B400082E10E94C20162E089E00E94F00182E696E0909300068093FF0510927D0610929A
:201B60007C0610927B0610927A0610927906109278068DE991E090937F0680937E06909116
:201B80006E06963108F047C02DEB30E030937906209378062BE931E030937B0620937A06D4
:201BA0002CE231E030937D0620937C062091680084E0983048F031E09E3008F430E081E0C2
:201BC00001C0880F3A95EAF7822B809368002DE630E0983050F02BE630E09E3030F02CE689
:201BE00030E0963110F030E020E03093760620937506292F30E0983008F0EBC181E001C09B
:201C0000880F9A95EAF78093770680917E0690917F060197F1F780917C0690917D06892BE7
:201C200049F1E0916006F091610626E0E236F20709F1309739F0A389B4899C9185898095F1
:201C400089238C93809180068E7F80938006109248051092470582E696E090936106809324
:201C60006006E0917506F0917606808190917706892B808380E895E2A0E0B0E080930106B6
:201C800090930206A0930306B09304061092050680EC8093080611E01093090610920A0601
:201CA00010920B06409108065091090660910A0670910B0680E00E94AB0010920C0610928C
:201CC0000D0610920E0610920F0680E180930C0680910D068F6180930D0680910E06807FA0
:201CE000816080930E0640910C0650910D0660910E0670910F0680E10E94AB0083E58093C1
:201D00001506109216061093170680E1809318064091150650911606609117067091180682
:201D20008CE60E94AB0084E290E0ADE0B1EC80931A0690931B06A0931C06B0931D0644E28C
:201D400050E06DE071EC80E70E94AB001092100610921106109212061092130640E050E0BF
:201D6000BA0182E40E94AB0044E150E060E070E081E10E94AB0040E050E0BA0183E10E9450
:201D8000AB0040E050E0BA0182E20E94AB0040E050E0BA0184E10E94AB0040E050E0BA0114
:201DA00080E40E94AB0040E050E0BA0182E40E94AB0042E050E060E070E081E00E94AB0024
:201DC00080910D06807E80930D0680910C06807E80930C060E94490180910606909107063E
:201DE00097FD03C061E00E94C20180911506807F809315060E943E0180911C068B7F80935C
:201E00001C0640911A0650911B0660911C0670911D0680E70E94AB0080911C06877F809376
:201E20001C0640911A0650911B0660911C0670911D0680E70E94AB0080910D06807E8F6091
:201E400080930D060E94490180910C06807E896080930C060E94490180911806807F846043
:201E6000809318060E943E01809108068B7F80930806409108065091090660910A06709135
:201E80000B0680E00E94AB0080911006807F81608093100680911106807F80931106409132
:201EA000100650911106609112067091130682E40E94AB0081E08093140680910606909172
:201EC000070697FD03C060E00E94C201909119069F7080911506807F892B809315060E94FB
:201EE0003E0184E891E00E94320880E695E00E94EE02181619060CF0C0C7AE014F5F5F4FA2
:201F00006A0110E000E07A010E948402609368057093690580936A0590936B0580E695E022
:201F20000E94CC0297FF97C70E9484028090680590906905A0906A05B0906B0568197909B8
:201F40008A099B098090640590906505A0906605B0906705681579058A059B05F8F2F701F4
:201F6000E00FF11F10826796FFAEEEAE6797AE014B5A5F4F66E771E0C7010E94EA170097EA
:201F800009F477C70E94CC176C015E01B1E4AB0EB11CF12CE12C8501AE014B5A5F4F66E79B
:201FA00071E090E080E00E94EA17009709F48EC7E5E0EE16F10409F489C7FFEFEF1AFF0A69
:201FC0000E94C817D5016D937D938D939D935D01E3CF9E3040F42850310981E001C0880FCD
:201FE0002A95EAF710CE2E503109F7CF8BE691E00E9440088DE891E00E94400886E991E069
:202000000E9440088CE591E00E943208D6C266E98EE196E00E944C046FEF7FEF8FEF90E0A0
:202020000E94BD07A12CB12C650186017501A60195016BEA71E081E0F3C364E68EE196E004
:202040000E944C046FEF7FEF8FEF90E00E94BD07A12CB12C650186017501A60195016BEBCE
:2020600071E0E9CF62E38EE196E00E944C046FEF7FEF8FEF90E00E94BD07A12CB12C65010B
:2020800086017501A601950160ED71E0D4CF69E18EE196E00E944C046FEF7FEF8FEF90E0EA
:2020A0000E94BD07A12CB12C650186017501A601950164EE71E0BFCF6FE08EE196E00E9469
:2020C0004C046FEF7FEF8FEF90E00E94BD07A12CB12C650186017501A601950168EF71E09E
:2020E000AACF6AE08EE196E00E944C046FEF7FEF8FEF90E00E94BD07A12CB12C650186018F
:202100007501A60195016CE072E095CF65E08EE196E00E944C046FEF7FEF8FEF90E00E9492
:20212000BD07A12CB12C650186017501A601950160E272E080CF8EE196E00E94E5098EE1CA
:2021400096E00E94E104A12CB12C650186017501A601950163E372E06ECF20E030E04FEF15
:2021600050E070E060E084E396E00E94800420E030E04FEF50E070E060E08AE496E00E9408
:20218000800466E984E396E00E944C0466E98AE496E00E944C0484E396E00E94E1048AE4A6
:2021A00096E00E94E1042FEF30E040E050E068E070E08EE196E00E9480042FEF30E040E0B3
:2021C00050E064E170E08EE196E00E94800466E98EE196E00E944C048EE196E00E94E1049D
:2021E000A12CB12C650186017501A601950164E472E021CF20E030E04FEF50E070E060E0FD
:2022000084E396E00E94800420E030E04FEF50E070E060E08AE496E00E94800462E384E3F7
:2022200096E00E944C0462E38AE496E00E944C0484E396E00E94E1048AE496E00E94E1044C
:202240002FEF30E040E050E068E070E08EE196E00E9480042FEF30E040E050E064E170E04A
:202260008EE196E00E94800462E3B2CF20E030E04FEF50E070E060E084E396E00E9480047C
:2022800020E030E04FEF50E070E060E08AE496E00E9480046EE184E396E00E944C046EE1B9
:2022A0008AE496E00E944C0484E396E00E94E1048AE496E00E94E1042FEF30E040E050E0FB
:2022C00068E070E08EE196E00E9480042FEF30E040E050E064E170E08EE196E00E9480043D
:2022E0006EE176CF20E030E04FEF50E070E060E084E396E00E94800420E030E04FEF50E0BB
:2023000070E060E08AE496E00E94800464E184E396E00E944C0464E18AE496E00E944C04F4
:2023200084E396E00E94E1048AE496E00E94E1042FEF30E040E050E068E070E08EE196E0D3
:202340000E9480042FEF30E040E050E064E170E08EE196E00E94800464E13ACF20E030E0DB
:202360004FEF50E070E060E084E396E00E94800420E030E04FEF50E070E060E08AE496E06A
:202380000E9480046AE084E396E00E944C046AE08AE496E00E944C0484E396E00E94E1047A
:2023A0008AE496E00E94E1042FEF30E040E050E068E070E08EE196E00E9480042FEF30E063
:2023C00040E050E064E170E08EE196E00E9480046AE0FECE20E030E04FEF50E070E060E0E9
:2023E00084E396E00E94800420E030E04FEF50E070E060E08AE496E00E94800465E084E316
:2024000096E00E944C0465E08AE496E00E944C0484E396E00E94E1048AE496E00E94E1046A
:202420002FEF30E040E050E068E070E08EE196E00E9480042FEF30E040E050E064E170E068
:202440008EE196E00E94800465E0C2CE84E396E00E94E5098AE496E00E94E50984E396E0DE
:202460000E94E1048AE496E00E94E1048EE196E00E94E5098EE196E00E94E104A12CB12CDF
:20248000650186017501A601950166E572E0D3CDE114F10409F454C0F80160817181828195
:2024A00093810E94601CD12C77FD06C06536710514F064E670E0D62EEA94EF2809F445C069
:2024C000D80114966D917D918D919C9117970E94601C8B0177FF02C010E000E08FEF0E94A2
:2024E0003B07B12CA12CC501B8010E9451022D2D30E0AFEFB0E00E94341B24E630E040E0B9
:2025000050E00E94B11A822F0E943B07809152058823F1F0C501B8010E948F192B013C0163
:202520006D2D70E090E080E00E948F199B01AC01A12CB12C65018301720169E672E07BCD5E
:2025400000ED17E060E5D62EC9CF00ED17E0C6CF8AE792E00E944F0830C08FEF0E943B070F
:2025600080915205882341F0A12CB12C650186017501A6019501E1CF8BE992E0EBCF80E01D
:202580000E943B078091520581110AC0A12CB12C650186017501A60195016BEB72E04BCD89
:2025A0008DEC92E0D7CF84E00E94990121E0892B09F020E0822F0E94420880E695E00E9422
:2025C000EE02181619060CF058C480E695E00E94CC02F3CFA12CB12C650186017501A601E5
:2025E00095016EEE72E081E00E943B0984E00E94990121E0892B09F020E0822F0E94420865
:202600005AE0852E912C84E00E9499013C019093510580935005892B09F079C061E087E0C4
:202620000E94C20120E030E04FEF50E070E060E084E396E00E94800420E030E04FEF50E0A6
:2026400070E060E08AE496E00E94800484E396E00E94E1048AE496E00E94E104A12CB12C67
:20266000650186017501A601950166E073E081E00E943B09209150053091510580914E0559
:2026800090914F052817390771F081E0672809F080E00E94420880915005909151059093B0
:2026A0004F0580934E0564EF71E080E090E00E945102B1E08B1A910809F0A5CF60E087E014
:2026C0000E94C20184E396E00E94E5098AE496E00E94E50984E396E00E94E1048AE496E06C
:2026E0000E94E104A12CB12C650186017501A601950160E273E081E00E943B098EE196E048
:202700000E94E5098EE196E00E94E10456CF60E087E00E94C20184E396E00E94E5098AE4B1
:2027200096E00E94E50984E396E00E94E1048AE496E00E94E104A12CB12C650186017501B7
:20274000A601950162E173E092CF60E081E10E94C2010E9484026B017C0110E000E00E94BB
:2027600084026C197D098E099F0960367A4E81059105D8F489E00E9499010197C9F061E00C
:2027800080E10E94C20183E290E00197F1F760E080E10E94C2018BEC97E00197F1F70F5F3C
:2027A0001F4F0135F3EC1F07D1F687E493E0D2CE64E670E080E090E00E94510289E00E94C1
:2027C00099010197E1F661E081E10E94C2010CE113E061E080E10E94C20183E290E0019794
:2027E000F1F760E080E10E94C2018BEC97E00197F1F70150110969F710924A0510924B05CF
:2028000010924C0510924D0581E080934905A12CB12C650186017501A601950169E373E026
:202820000E943B09CACE8EE593E0E114F10409F491CED8014D905D906D907C90EA94EF28AD
:2028400011F1F80164817581868197810E94601C16161706C4F4072E000C880B990B0E944A
:2028600091199B01AC01C301B2010E945806882379F0A12CB12C650186017501A301920196
:2028800068E773E0D8CB20E030E44CE155E4EBCF86E893E05FCEE114F10419F48DE993E0D1
:2028A00059CED8016C9011967C90119712968C90129713969C90212C312C2101EA94EF281E
:2028C00029F0F801248035804680578020E030E040EA50E4B301C4010E948A1987FD5CC024
:2028E00020E030E046E953E4B301C4010E94961C73018401181624F4E12CF12C06E913E446
:20290000A201910160E070E080E192E40E945806882309F44AC023ED3EED40EE5DE3B70108
:20292000C8010E94F0199B01AC0160E070E080E192E40E94811B6B017C0120E030E0A90192
:202940000E948A1987FD2DC020E030E040E152E4C701B6010E94961C181634F4C12CD12C47
:2029600040E1E42E42E4F42EA2019101C701B6010E9458068823C9F0E0904A05F0904B0535
:2029800000914C0510914D05A12CB12C65019301A40165EB73E04FCBE12CF12C00EA10E454
:2029A000AFCFC12CD12C7601DFCFE0904A05F0904B0500914C0510914D05A12CB12C650116
:2029C0009301A40167EC73E080E02ACFE114F10409F464CFD8014D905D906D907C9020E0F9
:2029E00030E0A901EA94EF2829F0F801248135814681578160E070E080E392E40E94580613
:202A0000882381F0E0904A05F0904B0500914C0510914D05A12CB12C6501A30192016AED98
:202A200073E009CBA12CB12C650186017501A30192016CEE73E0C8CF10914905C0904A0559
:202A4000D0904B05E0904C05F0904D058FEF93E00E94400880E891E0111102C082E891E0C0
:202A60000E9440088CE094E00E94400842E0C701B6010E945F0884E194E00E94400842E013
:202A800060E070E086E993E40E945F088DE591E0BBCA80E294E0F2E0EF16F1040CF45ACD86
:202AA000D8016D917D918D919C910E94601CA3966CAF7DAF8EAF9FAFA397A196EEADFFAD05
:202AC000A1976D96FFAFEEAF6D97D80114964D905D906D907C901797812C912C5401B2E017
:202AE000EB16F10429F0F80180849184A284B3846D962EAD3FAD6D97121613060CF0C6C0C7
:202B000020E030E0A901C301B2010E948A1918160CF0BCC0F0904A05E0904B0530904C05F9
:202B200020904D0520E030E040E05FE3C301B2010E94F01923ED3EED40EE5DE30E94F019AB
:202B40006B966CAF7DAF8EAF9FAF6B972DEC3CEC4CE45EE30E94821B6B018C019B01AC016D
:202B60006F2D7E2D832D922D0E948A1987FD1CC06B962CAD3DAD4EAD5FAD6B9763E373E391
:202B80008FE092E40E94811B6B018C019B01AC016F2D7E2D832D922D0E94961C181624F084
:202BA000CF2CDE2C032D122DA5019401B601C8010E945806882309F482C020E030E040E0CC
:202BC0005FEBC301B2010E94F0196B966CAF7DAF8EAF9FAF6B97F12CE12CA50194016B964E
:202BE0006CAD7DAD8EAD9FAD6B970E94EF06882309F465C064E170E080E090E00E9451024B
:202C0000A5019401C301B2010E94EF06882309F456C064E170E080E090E00E945102A501AD
:202C200094016B966CAD7DAD8EAD9FAD6B970E94EF06882309F443C03FEFE31AF30A6D96C5
:202C40004EAD5FAD6D974E155F0539F620E030E040E05FE3C501B4010E94F0194B015C0132
:202C600020E030E040E85FE30E94961C181634F0812C912C30E8A32E3FE3B32EA5019401A3
:202C8000B601C8010E9458068823C9F0A0904A05B0904B05C0904C05D0904D05A196AEAD5C
:202CA000BFADA197BD01BB0F880B990B0E9491199B01AC01830172016BE574E0BCC989E68D
:202CC00094E048CC87E794E0B3E0EB16F1040CF441CCF80160817181828193810E94601CF3
:202CE000A7966CAF7DAF8EAF9FAFA797A596AEACBFACA597D80114966D917D918D919C9171
:202D000017970E94601C6F966CAF7DAF8EAF9FAF6F97F80160857185828593850E94601CF9
:202D20006D964EAC5FAC6D97AB2819F4519441945108052C000C66087708072E000C880B96
:202D4000990B0E9491195B016C01C301B2016095709580959095662797FD639577278827A9
:202D6000992781E10E94C2016B964CAE5DAE6EAE7FAE6B9777FE0DC022273327A9012419AF
:202D80003509460957096B962CAF3DAF4EAF5FAF6B97A60195016B966CAD7DAD8EAD9FAD69
:202DA0006B970E94C905A3966CAF7DAF8EAF9FAFA3970E94911920E030E047EC54E40E94F3
:202DC000EE1B9B01AC0177FC505860914A0570914B0580914C0590914D050E94821B6093EE
:202DE0004A0570934B0580934C0590934D056B968CAD9DADAEADBFAD6B97A3962CAD3DAD0F
:202E00004EAD5FADA39782179307A407B507E9F46D964EAD5FAD6D97BA01550F880B990B96
:202E20000E9491192B013C01A596AEADBFADA597BD01BB0F880B990B0E9491199B01AC014B
:202E40008301720164EB74E0F6C883EC94E082CB8BED94E07FCB8A30910509F480C8D60148
:202E60008D936D010F5F1F4F0F33110509F04CC876C88BEE94E00E944F08C0905305D09057
:202E80005405E0905505F0905605C114D104E104F10471F00E9484026C197D098E099F09DD
:202EA000613E73498440910518F080E00E943B07E0E0F0E0EF2B09F418C80E94FA02882341
:202EC00009F413C80E9400000C94750FFDE1CF16D10408F0BDCFF601E059F84E0C94571BB0
:202EE000F60F07109B10AD102612AD12BF12D312EA122817A51313144B14E6141C1549159F
:202F000062161D10321047105C1071108610FA1036117211AE11EA114812CF93DF93EC0147
:202F200089859A850E943C1D8E819F8197FD05C060E0DF91CF910C94F001DF91CF910895D3
:202F40008AE496E00E948D1784E396E00E948D178EE196E00E948D178CE191E0909363068F
:202F60008093620680916006909161068256964071F4E0917506F09176069081809177063C
:202F800080958923808310926106109260060895662777270C941918FC0188279927E894DB
:202FA00021912032E9F3293010F02E30C8F32B3241F02D3239F4689404C00E941118820F89
:202FC000911D219120532A30C0F31EF4909581959F4F0895FA01A191B081009719F4109790
:202FE000E1F0CD01DC01CD010D90002011F4C00113C0FB012191222319F02015D9F7F3CF6E
:20300000FB012191201519F41E92119606C02223C1F70D900020A1F7D001FA01A193B0831E
:2030200008957AE0979F902D879F802D910D11240895B0E0A0E0EFE1F8E10C94E11A5C01B2
:203040007B016115710519F0DB018D939C9385010F5F1F4FF501D0818D2F90E00E946919DB
:203060006C01892BB9F5DD32B9F50F5F1F4FD5011196DC91C1E05801F1E0AF1AB10843E08E
:2030800050E060E770E0C5010E947219892B69F5680182E0C80ED11C45E050E06BE670E0E0
:2030A000C6010E947219892B21F4680197E0C90ED11CE114F10419F0D701CD92DC9260E0D7
:2030C00070E080E89FEFC111FFC060E070E080E89FE7FAC05801BBCFDB3229F485010E5FE1
:2030E0001F4FF501D181C0E0C6CF43E050E068E670E0C5010E947219892BE9F0F80110E08B
:2031000000E020E030E0A9015F01B0ED8B2E8D0E89E08815C8F19C2E689491F88C2F887003
:20312000C2FF16C0811102C00F5F1F4F3196D501DC91C92DE9CFE114F10429F00E5F1F4F32
:20314000F7011183008360E070E080EC9FE7BCC0882311F001501109A5E0B0E00E94D01AAA
:203160009B01AC01220F331F441F551F280D311D411D511D283999E93907490799E1590710
:20318000A8F2C6609C2ED2CFAEEF8A1206C0C3FD3CC09C2E689493F8C9CFDF7DD534A9F55D
:2031A00080818D3239F4C061DF011296818162E070E006C0DF018B32C1F3119661E070E096
:2031C00080535D01A61AB70A8A30F8F4E0E8CE16ECE0DE065CF4B601660F771F660F771F1E
:2031E000C60ED71ECC0CDD1CC80ED11C5D01FFEFAF1ABF0A8C9180538A30A8F1C4FF03C0CB
:20320000D194C194D1080C0D1D1DC1FF09C0E114F10431F081E0A81AB108D701AD92BC92F3
:20322000CA01B9010E948F19C370C33009F490584B015C0120E030E0A9010E948A19882361
:2032400009F440C0CFE9D0E017FF05C0119501951109C7E8D0E06E01B8E1CB1AD10880E251
:20326000E82EF12C0FC0D501B1CFFE0125913591459154910E191F09C501B4010E94F0194B
:203280004B015C01D501C4010E151F0574F72497F594E794CC16DD06A9F78A2F880F8B2F0A
:2032A000881F8F3F49F020E030E0A901C501B4010E948A19811106C082E290E0909382060F
:2032C00080938106C501B401CDB7DEB7ECE00C94FD1A91110C945D1A803219F0895085501B
:2032E000C8F70895FB01DC014150504088F08D9181341CF08B350CF4805E659161341CF0EC
:203300006B350CF4605E861B611171F3990B0895881BFCCF0E94CC1908F481E00895E8942C
:2033200009C097FB3EF490958095709561957F4F8F4F9F4F9923A9F0F92F96E9BB2793952B
:20334000F695879577956795B795F111F8CFFAF4BB0F11F460FF1BC06F5F7F4F8F4F9F4F4A
:2033600016C0882311F096E911C0772321F09EE8872F762F05C0662371F096E8862F70E0BD
:2033800060E02AF09A95660F771F881FDAF7880F9695879597F90895990F0008550FAA0B4D
:2033A000E0E8FEEF16161706E807F907C0F012161306E407F50798F0621B730B840B950B96
:2033C00039F40A2661F0232B242B252B21F408950A2609F4A140A6958FEF811D811D089500
:2033E0000E94031A0C94771A0E94691A38F00E94701A20F0952311F00C94601A0C94661A61
:2034000011240C94AB1A0E94881A70F3959FC1F3950F50E0551F629FF001729FBB27F00D59
:20342000B11D639FAA27F00DB11DAA1F649F6627B00DA11D661F829F2227B00DA11D621F61
:20344000739FB00DA11D621F839FA00D611D221F749F3327A00D611D231F849F600D211D28
:20346000822F762F6A2F11249F5750409AF0F1F088234AF0EE0FFF1FBB1F661F771F881F9B
:2034800091505040A9F79E3F510580F00C94601A0C94AB1A5F3FE4F3983ED4F386957795C0
:2034A0006795B795F795E7959F5FC1F7FE2B880F911D9695879597F9089599278827089518
:2034C00097F99F6780E870E060E008959FEF80EC089500240A941616170618060906089555
:2034E00000240A9412161306140605060895092E0394000C11F4882352F0BB0F40F4BF2B53
:2035000011F460FF04C06F5F7F4F8F4F9F4F089557FD9058440F551F59F05F3F71F0479557
:20352000880F97FB991F61F09F3F79F087950895121613061406551FF2CF4695F1DF08C056
:20354000161617061806991FF1CF86957105610508940895E894BB2766277727CB0197F977
:203560000895052E97FB1EF400940E94C81A57FD07D00E94121B07FC03D04EF40C94C81A2B
:2035800050954095309521953F4F4F4F5F4F089590958095709561957F4F8F4F9F4F089513
:2035A0000E94341BA59F900DB49F900DA49F800D911D112408952F923F924F925F926F9294
:2035C0007F928F929F92AF92BF92CF92DF92EF92FF920F931F93CF93DF93CDB7DEB7CA1BEC
:2035E000DB0B0FB6F894DEBF0FBECDBF09942A88398848885F846E847D848C849B84AA848B
:20360000B984C884DF80EE80FD800C811B81AA81B981CE0FD11D0FB6F894DEBF0FBECDBF37
:20362000ED010895A1E21A2EAA1BBB1BFD010DC0AA1FBB1FEE1FFF1FA217B307E407F507A6
:2036400020F0A21BB30BE40BF50B661F771F881F991F1A9469F760957095809590959B0198
:20366000AC01BD01CF010895A29FB001B39FC001A39F700D811D1124911DB29F700D811DC1
:203680001124911D0895AA1BBB1B51E107C0AA1FBB1FA617B70710F0A61BB70B881F991F16
:2036A0005A95A9F780959095BC01CD010895EE0FFF1F0590F491E02D09946927962769275D
:2036C000782787277827089597FD1094002E083098F00850232F342F452F562F672F782FF8
:2036E000892F912DF4CF1594979587957795679557954795379527950A95AAF71124002DA6
:2037000008955058BB27AA270E94991B0C94771A0E94691A38F00E94701A20F039F49F3F96
:2037200019F426F40C94661A0EF4E095E7FB0C94601AE92F0E94881A58F3BA176207730774
:203740008407950720F079F4A6F50C94AA1A0EF4E0950B2EBA2FA02D0B01B90190010C01FC
:20376000CA01A0011124FF27591B99F0593F50F4503E68F11A16F040A22F232F342F442771
:20378000585FF3CF469537952795A795F0405395C9F77EF41F16BA0B620B730B840BBAF0A9
:2037A0009150A1F0FF0FBB1F661F771F881FC2F70EC0BA0F621F731F841F48F48795779583
:2037C0006795B795F7959E3F08F0B0CF9395880F08F09927EE0F9795879508950E94021CA8
:2037E0000C94771A0E94701A58F00E94691A40F029F45F3F29F00C94601A51110C94AB1A1A
:203800000C94661A0E94881A68F39923B1F3552391F3951B550BBB27AA276217730784074C
:2038200038F09F5F5F4F220F331F441FAA1FA9F335D00E2E3AF0E0E832D091505040E69548
:20384000001CCAF72BD0FE2F29D0660F771F881FBB1F261737074807AB07B0E809F0BB0B0B
:20386000802DBF01FF2793585F4F3AF09E3F510578F00C94601A0C94AB1A5F3FE4F3983E8D
:20388000D4F3869577956795B795F7959F5FC9F7880F911D9695879597F90895E1E0660FB9
:2038A000771F881FBB1F621773078407BA0720F0621B730B840BBA0BEE1F88F7E0950895B5
:2038C0000E94671C6894B1110C94AB1A08950E94901A88F09F5798F0B92F9927B751B0F071
:2038E000E1F0660F771F881F991F1AF0BA95C9F714C0B13091F00E94AA1AB1E008950C940A
:20390000AA1A672F782F8827B85F39F0B93FCCF3869577956795B395D9F73EF49095809559
:20392000709561957F4F8F4F9F4F08950E94CC1908F48FEF08950E94CC19880B990B08955C
:203940000F931F93CF93DF938230910510F482E090E0E0918506F091860630E020E0B0E078
:20396000A0E0309799F42115310509F44AC0281B390B24303105D8F58A819B81611571050F
:2039800089F1FB0193838283FE0111C0408151810281138148175907E0F04817590799F441
:2039A000109761F012960C93129713961C933296CF01DF91CF911F910F9108950093850654
:2039C00010938606F4CF2115310551F04217530738F0A901DB019A01BD01DF01F801C1CF25
:2039E000EF01F9CF9093860680938506CDCFFE01E20FF31F819391932250310939832883D9
:203A0000D7CF2091830630918406232B41F420910201309103013093840620938306209145
:203A20000001309101012115310541F42DB73EB74091040150910501241B350BE091830612
:203A4000F0918406E217F307A0F42E1B3F0B2817390778F0AC014E5F5F4F2417350748F0A3
:203A60004E0F5F1F5093840640938306819391939FCFF0E0E0E09CCFCF93DF930097E9F0BD
:203A8000FC01329713821282A0918506B0918606ED0130E020E01097A1F420813181820F90
:203AA000931F20918306309184062817390709F061C0F0938406E0938306DF91CF910895C0
:203AC000EA01CE17DF07E8F54A815B819E0141155105B1F7E901FB83EA8349915991C40F4D
:203AE000D51FEC17FD0761F4808191810296840F951FE90199838883828193819B838A8331
:203B0000F0E0E0E012968D919C9113970097B9F52D913C911197CD010296820F931F2091A6
:203B20008306309184062817390739F6309751F51092860610928506B0938406A093830612
:203B4000BCCFD383C28340815181840F951FC817D90761F44E5F5F4F88819981480F591F04
:203B6000518340838A819B81938382832115310509F0B0CFF0938606E09385069ECFFD0110
:203B8000DC01C0CF13821282D7CFDC0101C06D9341505040E0F7089510E0C0E8D0E004C0AB
:203BA000FE010E94571B2196C138D107C9F7F894FFCF00008706800000000000300390027E
:203BC000BD027D03EE02CC02E00200000000B60390024904B503120428049D030D0A004F6E
:203BE0004B3A7B2276616C756531223A317D004F4B3A7B2276616C756531223A307D00453E
:203C000052523A7B226572726F72223A2200227D006E616E00696E66006F7666004F4B3A49
:203C2000004552523A007B002C002276223A5B005D00310030004F4B3A5265616479007B69
:203C4000226D7367223A220048656C6C6F2066726F6D205061776475696E6F210057686905
:203C60007465206C6967687473206F6E005768697465206C6967687473206F6E2031303069
:203C800025005768697465206C6967687473206F6E20353025005768697465206C696768E7
:203CA0007473206F6E20323525005768697465206C6967687473206F6E2031352500576861
:203CC000697465206C6967687473206F6E20313025005768697465206C6967687473206F19
:203CE0006E203525005768697465206C6967687473206F666600436F6E74616374206C6914
:203D000067687473206F6E00436F6E74616374206C6967687473206F666600456C65637431
:203D2000726F6D61676E6574206F6E004661696C656420746F20656E657267697A652065E3
:203D40006C656374726F6D61676E6574004661696C656420746F207475726E206F6E2065AB
:203D60006C656374726F6D61676E657400456C656374726F6D61676E6574206F6666004653
:203D800061696C656420746F207475726E206F666620656C656374726F6D61676E65740053
:203DA0004C696E6520627265616B20746573742073746172746564006265616D2062726F67
:203DC0006B656E006265616D20756E62726F6B656E004C696E6520627265616B2074657373
:203DE0007420636F6D706C657465005069706574746520686F6D6564004661696C65642069
:203E0000746F20686F6D652070697065747465004D697373696E6720706F736974696F6E6C
:203E200020617267756D656E740050697065747465206D6F766564004661696C6564207410
:203E40006F206D6F76652070697065747465004D697373696E6720766F6C756D652061727C
:203E600067756D656E74005069706574746520617370697261746564004661696C65642095
:203E8000746F20617370697261746500506970657474652064697370656E73656400466165
:203EA000696C656420746F2064697370656E7365004F4B3A7B22686F6D6564223A002C22BE
:203EC000706F73223A002C226D61785F766F6C223A004D697373696E67206D697820617259
:203EE00067756D656E7473202872657065746974696F6E732C20766F6C756D655F754C5B62
:203F00002C2076656C6F636974795D290050697065747465206D69786564004661696C656D
:203F20006420746F206D6978004D697373696E672072656C6174697665206D6F76652061FE
:203F40007267756D656E74732028646972656374696F6E2C2073746570732C2076656C6F66
:203F60006369747929004D6F7665642072656C6174697665004661696C656420746F206D13
:203F80006F76652072656C617469766500556E6B6E6F776E20636F6D6D616E6400496E763F
:203FA000616C696420636F6D6D616E6420666F726D617400FFFFFFFFFFFFFFFFFFFFFFFFCB
:203FC000FFFFFFFFFFFFFFFFFFFFFFFFFFFFFFFFFFFFFFFFFFFFFFFFFFFFFFFFFFFFFFFF01
:203FE000FFFFFFFFFFFFFFFFFFFFFFFFFFFFFFFFFFFFFFFFFFFFFFFFFFFFFFFFFFFFFFFFE1
:20400000FFFFFFFFFFFFFFFFFFFFFFFFFFFFFFFFFFFFFFFFFFFFFFFFFFFFFFFFFFFFFFFFC0
:20402000FFFFFFFFFFFFFFFFFFFFFFFFFFFFFFFFFFFFFFFFFFFFFFFFFFFFFFFFFFFFFFFFA0
:207E0000112484B714BE81FFF0D085E08093810082E08093C00088E18093C10086E08093FC
:207E2000C20080E18093C4008EE0C9D0259A86E020E33CEF91E0309385002093840096BBAD
:207E4000B09BFECF1D9AA8958150A9F7CC24DD2488248394B5E0AB2EA1E19A2EF3E0BF2E79
:207E6000A2D0813461F49FD0082FAFD0023811F0013811F484E001C083E08DD089C0823404
:207E800011F484E103C0853419F485E0A6D080C0853579F488D0E82EFF2485D0082F10E0A0
:207EA000102F00270E291F29000F111F8ED068016FC0863521F484E090D080E0DECF84364D
:207EC00009F040C070D06FD0082F6DD080E0C81680E7D80618F4F601B7BEE895C0E0D1E0ED
:207EE00062D089930C17E1F7F0E0CF16F0E7DF0618F0F601B7BEE89568D007B600FCFDCF1A
:207F0000A601A0E0B1E02C9130E011968C91119790E0982F8827822B932B1296FA010C016F
:207F200087BEE89511244E5F5F4FF1E0A038BF0751F7F601A7BEE89507B600FCFDCF97BE85
:207F4000E89526C08437B1F42ED02DD0F82E2BD03CD0F601EF2C8F010F5F1F4F84911BD0B8
:207F6000EA94F801C1F70894C11CD11CFA94CF0CD11C0EC0853739F428D08EE10CD085E9AE
:207F80000AD08FE07ACF813511F488E018D01DD080E101D065CF982F8091C00085FFFCCF0A
:207FA0009093C60008958091C00087FFFCCF8091C00084FD01C0A8958091C6000895E0E68F
:207FC000F0E098E1908380830895EDDF803219F088E0F5DFFFCF84E1DECF1F93182FE3DF47
:207FE0001150E9F7F2DF1F91089580E0E8DFEE27FF270994FFFFFFFFFFFFFFFFFFFF040425
:00000001FF
