:100000000C9481000C94A9000C94A9000C94EB0BA7
:100010000C94EB0B0C94EB0B0C94A9000C94A90022
:100020000C94A9000C94A9000C94A9000C94A900AC
:100030000C94A9000C94A9000C94A9000C94A9009C
:100040000C94490B0C94A9000C94B90B0C94930BD1
:100050000C94A9000C94A9000C94A9000C94A9007C
:100060000C94A9000C94A9004E414E494E49545994
:10007000494E46CDCCCC3D0AD7233C17B7D1387773
:10008000CC2B329595E6241FB14F0A000020410089
:1000900000C84200401C4620BCBE4CCA1B0E5AAED3
:1000A000C59D7400000000240027002A0000000005
:1000B0000800020100000304070000000000000027
:1000C0000000000000230026002900000000002599
:1000D0000028002B000404040404040404020202A7
:1000E0000202020303030303030102040810204079
:1000F0008001020408102001020408102000C10C35
:10010000931911241FBECFEFD8E0DEBFCDBF15E09D
:10011000A0E0B1E0EAECFFE302C005900D92A0314F
:10012000B107D9F726E0A0E1B5E001C01D92A539DD
:10013000B207E1F710E0C0E8D0E004C02197FE016B
:100140000E944A1DCF37D107C9F70E94A40D0C9415
:10015000D81F0C940000EF92FF920F931F93CF9340
:10016000DF93FC01A0E0D0E0C0E017E02081318106
:100170004281538164817581868197810C2F0E9411
:10018000721D38E08A2F90E0422F50E0BC01660FCC
:10019000672F661F770B20FBEE24E0F8F12CAA0FE7
:1001A0006E157F0521F0DC01AA0FBB1FA127559515
:1001B0004795242F315031F72896C833D105B1F631
:1001C0008A2FDF91CF911F910F91FF90EF900895AB
:1001D00080910B0690910C06009739F0DC01ED91AF
:1001E000FC910284F385E02D099480910D06909195
:1001F0000E06009799F790E080E0089580910B0635
:1002000090910C06009739F0DC01ED91FC9100848F
:10021000F185E02D099480910D0690910E060097CE
:1002200099F790E080E0089580910B0690910C067C
:10023000009739F0DC01ED91FC910680F781E02D0B
:1002400009940895682F80910B0690910C060097F1
:1002500039F0DC01ED91FC910190F081E02D0994E1
:1002600080910D0690910E06009799F790E080E03E
:100270000895EF92FF920F93CF93DF93CDB7DEB740
:1002800028970FB6F894DEBF0FBECDBF188695E055
:100290009983909113069A838F7780688B83CB0123
:1002A000BA010E94501D6C837D838E839F83CE0193
:1002B00001960E94AB008887F12CE12C29813A81BC
:1002C0004B815C816D817E818F8198850E2D0E948E
:1002D000721D822F0E94220188E0E80EF11C80E44A
:1002E000E816F10459F728960FB6F894DEBF0FBE52
:1002F000CDBFDF91CF910F91FF90EF900895409186
:1003000023065091240660912506709126068CE6FE
:100310000C94390140911A0650911B0660911C06FD
:1003200070911D0680E10E94390190911B069F711A
:1003300080911F06943190F0806880931F06809111
:100340002206882369F040911E0650911F06609195
:1003500020067091210682E40C9439018F77EDCF4D
:100360000895833081F028F4813099F08230A9F02B
:1003700008958730A9F08830C9F08430B1F48091B5
:1003800080008F7D03C0809180008F7780938000F4
:10039000089584B58F7784BD089584B58F7DFBCF94
:1003A0008091B0008F778093B00008958091B00065
:1003B0008F7DF9CFCF93DF93282F30E0F901E355FC
:1003C000FF4F8491F901E751FF4FD491F901EB52AE
:1003D000FF4FC491CC23A1F081110E94B101EC2FF9
:1003E000F0E0EE0FFF1FEF53FF4FA591B491EC919A
:1003F000ED2381E090E009F480E0DF91CF91089552
:1004000080E090E0FACF1F93CF93DF93282F30E066
:10041000F901E355FF4F8491F901E751FF4FD49162
:10042000F901EB52FF4FC491CC23A9F0162F811193
:100430000E94B101EC2FF0E0EE0FFF1FE553FF4FDC
:10044000A591B4918FB7F894EC91111108C0D09593
:10045000DE23DC938FBFDF91CF911F910895DE2BB8
:10046000F8CFCF93DF9390E0FC01E751FF4F249149
:100470008B529F4FFC0184918823C9F090E0880F34
:10048000991FFC01ED55FF4FA591B491FC01E55377
:10049000FF4FC591D49161110DC09FB7F8948C9115
:1004A000209582238C938881282328839FBFDF9106
:1004B000CF910895623051F49FB7F8943C91822F08
:1004C000809583238C93E8812E2BEFCF8FB7F89400
:1004D000EC912E2B2C938FBFEACF3FB7F8948091ED
:1004E0006A0590916B05A0916C05B0916D0526B5DC
:1004F000A89B05C02F3F19F00196A11DB11D3FBF5C
:10050000BA2FA92F982F8827BC01CD01620F711D2A
:10051000811D911D42E0660F771F881F991F4A9524
:10052000D1F708958F929F92AF92BF92CF92DF92B0
:10053000EF92FF926B017C010E946D024B015C0106
:10054000C114D104E104F104B9F00E946D026819EC
:1005500079098A099B09683E73408105910580F3FA
:1005600021E0C21AD108E108F10888EE880E83E084
:10057000981EA11CB11CE4CFFF90EF90DF90CF90AC
:10058000BF90AF909F908F9008952FB7F89460918F
:1005900066057091670580916805909169052FBF88
:1005A0000895AF92BF92CF92DF92EF92FF920F9396
:1005B0001F93CF93DF936C017B018B01040F151FF9
:1005C000EB015E01AE18BF08C017D10759F0699161
:1005D000D601ED91FC910190F081E02DC6010995C5
:1005E000892B79F7C501DF91CF911F910F91FF9072
:1005F000EF90DF90CF90BF90AF900895FC01538DA6
:10060000448D252F30E0842F90E0821B930B5417EC
:1006100010F0CF96089501970895FC01918D828D79
:10062000981761F0A28DAE0FBF2FB11D5D968C9112
:10063000928D9F5F9F73928F90E008958FEF9FEF51
:100640000895FC01918D828D981731F0828DE80F0D
:10065000F11D858D90E008958FEF9FEF0895FC01C7
:10066000918D228D892F90E0805C9F4F821B910994
:100670008F73992708958EE695E00E942F0321E05D
:10068000892B09F420E0822F089580E090E0892BE7
:1006900029F00E943B0381110C9400000895FC0195
:1006A000A48DA80FB92FB11DA35ABF4F2C91848DD3
:1006B00090E001968F739927848FA689B7892C9330
:1006C000A089B1898C91837080648C93938D848D83
:1006D000981306C00288F389E02D80818F7D808386
:1006E0000895EF92FF920F931F93CF93DF93EC0146
:1006F00081E0888F9B8D8C8D98131AC0E889F989C9
:10070000808185FF15C09FB7F894EE89FF896083CB
:10071000E889F98980818370806480839FBF81E04C
:1007200090E0DF91CF911F910F91FF90EF9008958E
:10073000F62E0B8D10E00F5F1F4F0F731127E02E69
:100740008C8D8E110CC00FB607FCFACFE889F989A1
:10075000808185FFF5CFCE010E944F03F1CFEB8D55
:10076000EC0FFD2FF11DE35AFF4FF0829FB7F89475
:100770000B8FEA89FB8980818062CFCFCF93DF9393
:10078000EC01888D8823B9F0AA89BB89E889F989A9
:100790008C9185FD03C0808186FD0DC00FB607FCDE
:1007A000F7CF8C9185FFF2CF808185FFEDCFCE0111
:1007B0000E944F03E9CFDF91CF91089520916E06FB
:1007C00030916F062817390771F490915505809183
:1007D0005605981741F0E0915505F0E0EB5EFA4FB1
:1007E000808190E008958FEF9FEF08950895EF9234
:1007F000FF920F931F93CF93DF93DC015C96ED90F4
:10080000FC905D97E114F10479F481E090E0139697
:100810009C938E93129790E080E0DF91CF911F918F
:100820000F91FF90EF9008955196ED91FC915297A2
:1008300050968C915097982F90950FB75E962C916B
:100840005E97122F127021FD6095F894208111237C
:1008500019F1282B2083E7012197F1F728E0462F93
:1008600050E0308160FF1AC0382B3083E7012197B8
:10087000F1F7BA0175956795215089F7112381F039
:100880008081892380830FBF5C968D919C91019715
:10089000F1F781E090E0C1CF2923DCCF3923E5CF08
:1008A0009081892BEFCF20916E0630916F0628172B
:1008B000390761F4809156052091550590E0805CE0
:1008C0009F4F821B91098F739927089590E080E0D4
:1008D000089520916E0630916F0628173907B9F4F4
:1008E0009091550580915605981789F0E09155052E
:1008F000F0E0EB5EFA4F80812091550530E02F5FEC
:100900003F4F2F7333272093550590E008958FEFC5
:100910009FEF089590E080E008950F931F93CF9389
:10092000DF93EC0121E0260F6885621729F1098524
:100930001A859FEF960F70E060E059F0422F50E06B
:10094000542F442741505109692F70E0CA010E9479
:10095000361DF8014C815D81CF01801B910B8417FE
:10096000950748F43081369FC001379F900D1124C0
:1009700090833196EFCF2887DF91CF911F910F9110
:1009800008958F929F92AF92BF92CF92DF92EF9293
:10099000FF92CF93DF93FC018281938168177907DF
:1009A000D8F54A01AA24BB24C32ED42EE52EFF2459
:1009B000DC2DC22F8085982D882391F0C82FD0E0A0
:1009C000C89DD001C99DB00DD89DB00D11249B2F9D
:1009D0008C9D60011124DD2D829F90011124C32F75
:1009E000A685218532858385A81321C0AB01440FDC
:1009F000551F640F751F620F731FA385A60FB72FB6
:100A0000B11D9C93A485A60FB72FB11DDC938585DE
:100A1000680F711DFB01C083DF91CF91FF90EF90B4
:100A2000DF90CF90BF90AF909F908F900895660F0A
:100A3000771F660F771F620F731FA60FB72FB11DA9
:100A40001C92DBCFCF92DF92EF92FF920F931F9316
:100A5000CF93DF93CDB7DEB729970FB6F894DEBFFB
:100A60000FBECDBF8C01DC0119968D919C91892B15
:100A700009F473C00E946D02F801C784D088E18830
:100A8000F2886C157D058E059F0520F46787708BB5
:100A9000818B928BF801C784D088E188F2886C1929
:100AA0007D098E099F096C3271408105910510F313
:100AB000F894D80114968D919C9115979A83898307
:100AC0001996ED91FC917F01BFEFEB1AFB0A808133
:100AD0008987F80190810388F489E02DD801559623
:100AE0008C91992309F448C09081982B9887908124
:100AF000809589238F838F818C8388E08B835885B1
:100B00006F8149853B812C8189819A81D7015083EE
:100B100047FD252F3A952083262F39F0441F00C02A
:100B200000006083000000C0F2CF38E04D91608388
:100B30000000019761F7D8015496FC93EE93539708
:100B400049873B832C839A83898378940E946D0222
:100B5000F8016787708B818B928B29960FB6F8947A
:100B6000DEBF0FBECDBFDF91CF911F910F91FF90E0
:100B7000EF90DF90CF9008959081982B9887908187
:100B8000809589238F838F818E8388E08D8358851C
:100B90006F8149853D812E8189819A81D70150835A
:100BA00047FD252F00C000C0208300C000C000C04A
:100BB00000C000C060830000262F3A9541F0441F1A
:100BC000000000C000C000C000C000C0E8CF38E096
:100BD0004D9100C0608300C0019709F7D801549679
:100BE000FC93EE93539749873D832E83ACCFCF93ED
:100BF000DF93EC018E819F8197FD0CC061E00E9424
:100C0000310260E08E810E94030281E08983DF91DE
:100C1000CF910895198280E0FACF4F925F926F9240
:100C20007F928F929F92AF92BF92CF92DF92EF927C
:100C3000FF920F931F93CF93DF932B013C01690128
:100C40007A010E94C5024B015C01A701960160E098
:100C500074E284E799E40E94FA1D0E94731E6131D8
:100C600027E272078105910520F060E177E280E0DC
:100C700090E0643671058105910520F464E670E02A
:100C800080E090E06A507109660F771F660F771F4A
:100C90008B0105501109C12CD12C7601C3E2D0E0A3
:100CA000C414D504E604F70419F161E080E10E9460
:100CB0000302CE010197F1F760E080E10E94030298
:100CC000C8010197F1F78FEFC81AD80AE80AF80AA5
:100CD00089E00E94DA010197F1F00E94C5026819CB
:100CE00079098A099B0961367A4E81059105C0F21E
:100CF000C701B601DF91CF911F910F91FF90EF9047
:100D0000DF90CF90BF90AF909F908F907F906F902B
:100D10005F904F90089581E10E94DA01892BE9F6F6
:100D200064E670E080E090E00E94920289E00E9418
:100D3000DA01019791F6DCCF4F925F926F927F922A
:100D40008F929F92AF92BF92CF92DF92EF92FF92DB
:100D50006B017C0129013A0120E030E0A9010E94E9
:100D60007D1B87FD6DC020E030E04CE552E4C701FB
:100D7000B6010E94A21E181634F4C12CD12C8CE5A9
:100D8000E82E82E4F82E8090580590905905A090A6
:100D90005A05B0905B05A5019401C701B6010E94F8
:100DA0008D1D20E030E047EC54E40E94E31B0E94DC
:100DB0006C1E6B017C01C114D104E104F10491F1BA
:100DC00061E01C141D041E041F040CF060E081E1AE
:100DD0000E940302C701B601F7FE07C06627772706
:100DE000CB016C197D098E099F09A30192010E9414
:100DF0000D061C141D041E041F0434F50E94841BE0
:100E000020E030E047EC54E40E94FA1DA501940173
:100E10000E948E1D609358057093590580935A0562
:100E200090935B0581E0FF90EF90DF90CF90BF90B3
:100E3000AF909F908F907F906F905F904F900895AC
:100E4000C12CD12C76019FCF0E94841B20E030E082
:100E500047EC54E40E94FA1D9B01AC01C501B401AA
:100E60000E948D1DD7CF8F929F92AF92BF92CF924B
:100E7000DF92EF92FF9249015A0126E636E646EEEE
:100E80005FE30E94E31B2091580530915905409182
:100E90005A0550915B050E948E1D6B017C012DEC63
:100EA0003CEC4CE45EE30E947D1B87FD12C023E313
:100EB00033E34FE052E4C701B6010E94A21E1816A8
:100EC00084F483E3C82EDC2C8FE0E82E82E4F82E35
:100ED00008C09DECC92E9CECD92E9CE4E92E9EE323
:100EE000F92EA5019401C701B601FF90EF90DF90A4
:100EF000CF90BF90AF909F908F900C949C060F93D3
:100F00001F93CF93C82F80936005082F10E061E0F6
:100F10008BE00E9431020115110519F560E08BE0AC
:100F20000E94030280916005882309F461C08091CA
:100F3000610590916205A0916305B0916405892BCC
:100F40008A2B8B2B51F40E94C5026093610570932C
:100F500062058093630590936405CF911F910F9173
:100F600008950F3F110511F461E0D9CFE8EBF0E0EF
:100F7000E491E33019F140F4E130B1F0E230C9F02E
:100F8000003811058CF7CACFE73011F1E83041F194
:100F9000E430B1F7809180008062809380001093EC
:100FA0008B0000938A00BECF84B5806884BDC7BD26
:100FB000B9CF84B5806284BDC8BDB4CF80918000B4
:100FC0008068809380001093890000938800AACFE6
:100FD0008091B00080688093B000C093B300A2CF2E
:100FE0008091B00080628093B000C093B4009ACF2B
:100FF00010926105109262051092630510926405CB
:10100000ACCFCF92DF92EF92FF92CF93DF936B0141
:101010007C01D0E0C0E080912E0690912F06C81789
:10102000D90748F4A7019601BE018CE296E00E9420
:10103000C1042196F0CF8CE296E0DF91CF91FF9032
:10104000EF90DF90CF900C9422056F927F928F9259
:101050009F92AF92BF92CF92DF92EF92FF920F9347
:101060001F93CF93DF93CDB7DEB728970FB6F894D1
:10107000DEBF0FBECDBFF5E0CF2ED12CE12CF12C81
:10108000D09013068F779E2D9078E92EE82AE89469
:10109000E7F880E030E020E0A7E0BA2EB701A60133
:1010A000022E04C076956795579547950A94D2F716
:1010B00058E0682F70E0A42FB0E08B01000F012FE3
:1010C000001F110BE42FE170F0E0880F0E171F07CF
:1010D00021F0CB01880F991F8B25B595A7954A2F35
:1010E000515039F7285F3F4F28313105B9F6F82EB6
:1010F00085E0682E0E9414010E94FE001816190651
:101100001CF40E94E800F8CF10E000E0D701C6010F
:10111000002E04C0B695A795979587950A94D2F7A7
:101120000E942201085F1F4F0032110579F70E94CB
:101130001401812C912C54010E94FE0004976CF440
:1011400080EA88168FE09806A104B104A9F08FEF19
:10115000881A980AA80AB80AEFCF80EA88168FE0A2
:101160009806A104B10441F00E94E8000E94E80042
:101170000E94E8000E94E800812C912C54010E94FA
:10118000FE00089774F480E1881687E29806A104AF
:10119000B10409F46DC08FEF881A980AA80AB80A3A
:1011A000EECF80E1881687E29806A104B10409F425
:1011B0005FC019821A821B821C821D821E821F82BE
:1011C0001886B12CA12C0E94E8009C01932F990F46
:1011D000990B492F592F692F792F892F0A2D0E949A
:1011E000571DE9812E2BEA813E2BEB814E2B8C8003
:1011F000852A9D80962A0E81072B1F81182B7884C3
:10120000792A29833A834B838C829D820E831F83A4
:10121000788688E0A80EB11C80E4A816B10499F67F
:10122000CE0101960E94AB00871119C0B401C8011C
:101230000E94501D28960FB6F894DEBF0FBECDBF9A
:10124000DF91CF911F910F91FF90EF90DF90CF90A2
:10125000BF90AF909F908F907F906F90089564E1C2
:1012600070E080E090E00E9492026A94611042CFA8
:1012700060E070E0CB01DECFFC0101900020E9F7D7
:101280003197AF01481B590BBC018EE695E00C94D9
:10129000D1028F929F92AF92BF920F931F93CF93E1
:1012A000DF93CDB7DEB7A1970FB6F894DEBF0FBEC0
:1012B000CDBF19A2423008F44AE08E010F5D1F4FE6
:1012C000842E912CB12CA12CA50194010E94051D06
:1012D000E62FB901CA01EA30F4F4E05DD801EE93DB
:1012E0008D01232B242B252B79F790E080E010979C
:1012F00019F0CD010E943C09A1960FB6F894DEBF0B
:101300000FBECDBFDF91CF911F910F91BF90AF90D6
:101310009F908F900895E95CE1CFCF93DF930E9477
:101320003C09EC018AE291E00E943C098C0F9D1F70
:10133000DF91CF9108950C943C09811108C08DE391
:1013400091E00E949B098AE291E00C943C098DE2B5
:1013500091E0F7CFCF93DF93EC018DE491E00E9411
:101360009B09CE010E949B098CE591E0DF91CF9112
:101370000C948D094F925F926F927F928F929F9201
:10138000AF92BF92CF92DF92EF92FF920F931F9393
:10139000CF936B017C01742EAC019B010E94A71EB0
:1013A000882399F08FE591E0CF911F910F91FF90E5
:1013B000EF90DF90CF90BF90AF909F908F907F90F5
:1013C0006F905F904F900C943C0946015701E89450
:1013D000B7F82FEF3FEF4FE75FE7C501B4010E9479
:1013E000A71E81110DC02FEF3FEF4FE75FE7C5014B
:1013F000B4010E947D1B18161CF483E691E0D4CF43
:101400002FEF3FEF4FE75FE4C701B6010E94A21E36
:1014100018161CF487E691E0C7CF2FEF3FEF4FE798
:101420005FECC701B6010E947D1B87FDF3CF20E072
:1014300030E0A901C701B6010E947D1B10E000E069
:1014400087FF0AC06DE28EE695E00E9471038C0171
:10145000F7FAF094F7F8F094C0E060E070E080E014
:101460009FE37C1641F020E030E040E251E40E942E
:10147000FA1DCF5FF6CFA70196010E948E1D2B01AA
:101480003C010E94731E4B015C014AE00E94490925
:101490007C01E00EF11ECC23C1F1C501B4010E9414
:1014A000821B9B01AC01C301B2010E948D1D4B0147
:1014B0005C016EE28EE695E00E947103E80EF91E73
:1014C000C15018F120E030E040E251E4C501B40120
:1014D0000E94E31B2B013C010E94731E4B01B12CA7
:1014E000A12C4AE0C501B4010E944909E80EF91E89
:1014F000C501B4010E94821B9B01AC01C301B20172
:101500000E948D1D4B015C01DBCFC701CF911F9164
:101510000F91FF90EF90DF90CF90BF90AF909F9092
:101520008F907F906F905F904F9008954F925F9251
:101530006F927F92AF92BF92CF92DF92EF92FF9223
:101540000F931F93CF93DF9300D000D000D0CDB77F
:10155000DEB77E836D8329833A834B835C832701C7
:10156000380181118AC08FE691E00E949B0984E7CF
:1015700091E00E949B098EE891E00E949B098D8179
:101580009E810E949B0984E991E00E949B0920E0D2
:1015900030E0A90169817A818B819C810E947D1B49
:1015A000811113C020E030E0A901C301B2010E9403
:1015B0007D1B81110AC020E030E0A901C601B50100
:1015C0000E947D1B882309F440C086E791E00E94B9
:1015D0009B0988E791E00E949B0942E069817A813A
:1015E0008B819C810E94BA0920E030E0A901C301EF
:1015F000B2010E947D1B811109C020E030E0A901E9
:10160000C601B5010E947D1B8823D9F086E791E0D1
:101610000E949B0942E0C301B2010E94BA0920E086
:1016200030E0A901C601B5010E947D1B882349F065
:1016300086E791E00E949B0942E0C601B5010E9445
:10164000BA098EE791E00E949B098DE591E026960C
:101650000FB6F894DEBF0FBECDBFDF91CF911F91C3
:101660000F91FF90EF90DF90CF90BF90AF907F9061
:101670006F905F904F900C948D098BE691E075CF41
:10168000FC014481558170E060E0818592850C9475
:10169000D11F1F920F920FB60F9211242F933F93D9
:1016A0008F939F93AF93BF93809166059091670549
:1016B000A0916805B09169053091650523E0230F7D
:1016C0002D3758F50196A11DB11D20936505809316
:1016D000660590936705A0936805B09369058091AE
:1016E0006A0590916B05A0916C05B0916D0501960E
:1016F000A11DB11D80936A0590936B05A0936C05A5
:10170000B0936D05BF91AF919F918F913F912F91B4
:101710000F900FBE0F901F90189526E8230F02968A
:10172000A11DB11DD2CF1F920F920FB60F9211249F
:101730002F933F934F935F936F937F938F939F93D9
:10174000AF93BF93EF93FF938EE695E00E944F0314
:10175000FF91EF91BF91AF919F918F917F916F9189
:101760005F914F913F912F910F900FBE0F901F905F
:1017700018951F920F920FB60F9211242F938F93EB
:101780009F93EF93FF93E0917E05F0917F05808119
:10179000E0918405F091850582FD1BC090818091C8
:1017A00087058F5F8F7320918805821741F0E09144
:1017B0008705F0E0E259FA4F958F80938705FF91F6
:1017C000EF919F918F912F910F900FBE0F901F90CF
:1017D00018958081F4CF1F920F920FB60F921124AB
:1017E0002F933F934F935F936F937F938F939F9329
:1017F000AF93BF93EF93FF93E0916E06F0916F0666
:10180000309749F0A685B7858585968D91FF14C0E0
:101810009C918923A1F4FF91EF91BF91AF919F918A
:101820008F917F916F915F914F913F912F910F9089
:101830000FBE0F901F9018959C91892361F7A38983
:10184000B4899C918589809589238C938689978911
:101850000197F1F7608D718DA685B785558538E0C4
:1018600020E0CB010197F1F7822F90E095958795C5
:10187000282F4C91452309F02068315091F7868D2F
:1018800081FD20958091560590E001968F739927F0
:1018900030915505381799F0A0915605B0E0AB5E30
:1018A000BA4F2C9380935605828D938D0197F1F753
:1018B000A389B4898C919589892B8C93ACCF868D23
:1018C0008160868FF1CFCF92DF92EF92FF920F93DC
:1018D0001F93CF93DF93EC016B01142F052F198217
:1018E00018861F86188A198A1A8A83E08E8781E0F3
:1018F0008B871C8692E09D8788837B01EE0CFF1C02
:10190000EE0CFF1CFD82EC82C7010E94AC1E9A8780
:101910008987009789F1A70170E060E00E94D11FDC
:10192000DB82CA821E830F838981882341F061E0B4
:10193000812F0E94310260E0812F0E940302812FDB
:10194000902FFC01EB52FF4FE491F0E0EE0FFF1FF0
:10195000E553FF4F259134913C8B2B8BFC01E751D4
:10196000FF4FE491ED8BDF91CF911F910F91FF908D
:10197000EF90DF90CF9008951D821C821B821A8207
:10198000D1CF109271051092700588EE93E0A0E01F
:10199000B0E08093720590937305A0937405B093A3
:1019A00075052AE031E030936F0520936E0525EC34
:1019B00030E030937B0520937A0524EC30E03093BF
:1019C0007D0520937C0520EC30E030937F0520934B
:1019D0007E0521EC30E0309381052093800522ECD8
:1019E00030E0309383052093820526EC30E030937D
:1019F0008505209384051092870510928805109222
:101A0000890510928A0510927306109272068093CF
:101A1000740690937506A0937606B09377068CE1D2
:101A200091E0909371068093700610928706109251
:101A30008606109289061092880610928B061092E4
:101A40008A0610928D0610928C0660918E066E7F2B
:101A50006D7F60938E066695617081E068278FE0E8
:101A60000E94030261E08FE00E943102E8EFF0E0A3
:101A7000E491E0938006E4EEF0E0E491F0E0EE0F14
:101A8000FF1FE553FF4F85919491909382068093B9
:101A9000810660E08EE00E94310280918E0681FD19
:101AA00004C061E08EE00E9403028EE080937C0619
:101AB000E7EFF0E0E491E0937D06E3EEF0E0E491FF
:101AC000F0E0EE0FFF1FEF53FF4F8591949190933D
:101AD0007F0680937E0683E08093270610920C0693
:101AE00010920B0610920E0610920D0680E092ECFA
:101AF000A1E0B0E080930F0690931006A09311062A
:101B0000B0931206109213068FEF9FEF9093150675
:101B1000809314061092220643E050E068E170E0E2
:101B20008CE296E00E94630C45E050E061E070E0DA
:101B300082E496E00E94630C46E050E061E070E0D1
:101B400088E596E00C94630CCF93DF93CDB7DEB7B6
:101B5000C656D1090FB6F894DEBF0FBECDBF78943C
:101B600084B5826084BD84B5816084BD85B58260A2
:101B700085BD85B5816085BD80916E008160809353
:101B80006E001092810080918100826080938100BC
:101B900080918100816080938100809180008160CC
:101BA000809380008091B10084608093B100809127
:101BB000B00081608093B00080917A00846080934F
:101BC0007A0080917A00826080937A0080917A0016
:101BD000816080937A0080917A00806880937A0097
:101BE0001092C100E0917E05F0917F0582E0808334
:101BF000E0917A05F0917B051082E0917C05F091EF
:101C00007D0580E1808310928605E0918205F09148
:101C1000830586E08083E0918005F09181058081D5
:101C200080618083E0918005F091810580818860EA
:101C30008083E0918005F0918105808180688083B8
:101C4000E0918005F091810580818F7D808388EE11
:101C500093E0A0E0B0E08093720590937305A093A9
:101C60007405B093750561E087E00E94310282E45B
:101C700096E00E94F70566E982E496E00E948D04F2
:101C800082E496E00E94220588E596E00E94F7052E
:101C900066E988E596E00E948D0488E596E00E945A
:101CA000220520E030E04FEF50E070E060E082E499
:101CB00096E00E94C10482E496E00E94220564EF4F
:101CC00071E080E090E00E94920282E496E00E943F
:101CD000400B82E496E00E94220520E030E04FEFC6
:101CE00050E070E060E088E596E00E94C10488E57D
:101CF00096E00E94220564EF71E080E090E00E948F
:101D0000920288E596E00E94400B88E596E00E94EA
:101D100022058CE296E00E94F70566E98CE296E0E7
:101D20000E948D048CE296E00E94220560E07FEF25
:101D300080E090E00E94010864EF71E080E090E0B4
:101D40000E9492028CE296E00E94400B8CE296E0A8
:101D50000E94220560E870E0CB010E94010864EF58
:101D600071E080E090E00E9492028CE296E00E9496
:101D7000400B8CE296E00E94220561E08BE00E941D
:101D8000310261E08BE00E94310260E08BE00E9452
:101D90000302109260051092610510926205109284
:101DA00063051092640560E084E00E94310261E006
:101DB00084E00E94030284E00E94DA018C01909387
:101DC0005F0580935E0561E0892B09F060E087E0A4
:101DD0000E94030210935D0500935C0561E080E1C1
:101DE0000E94310261E081E10E94310261E082E102
:101DF0000E94310260E082E10E94030262E089E019
:101E00000E94310280E796E090930E0680930D06C3
:101E100010928B0610928A061092890610928806FC
:101E200010928706109286068DE991E090938D06B8
:101E300080938C0690917C06963108F047C02DEB7C
:101E400030E030938706209386062BE931E030930B
:101E50008906209388062CE231E030938B0620938C
:101E60008A062091680084E0983048F031E09E3086
:101E700008F430E081E001C0880F3A95EAF7822B40
:101E8000809368002DE630E0983050F02BE630E08B
:101E90009E3030F02CE630E0963110F030E020E05B
:101EA0003093840620938306292F30E0983008F081
:101EB000F1C181E001C0880F9A95EAF78093850609
:101EC00080918C0690918D060197F1F780918A069A
:101ED00090918B06892B49F1E0916E06F0916F0687
:101EE00026E0E037F20709F1309739F0A389B48989
:101EF0009C918589809589238C9380918E068E7F15
:101F000080938E06109256051092550580E796E054
:101F100090936F0680936E06E0918306F09184069D
:101F2000808190918506892B808380E895E2A0E0EE
:101F3000B0E080930F0690931006A0931106B09323
:101F400012061092130680EC8093160611E010938F
:101F50001706109218061092190640911606509115
:101F60001706609118067091190680E00E943901E9
:101F700010921A0610921B0610921C0610921D0653
:101F800080E180931A0680911B068F6180931B0667
:101F900080911C06807F816080931C0640911A0608
:101FA00050911B0660911C0670911D0680E10E94F5
:101FB000390183E5809323061092240610932506A9
:101FC00080E180932606409123065091240660917B
:101FD0002506709126068CE60E94390184E290E085
:101FE000ADE0B1EC8093280690932906A0932A06D1
:101FF000B0932B0644E250E06DE071EC80E70E9464
:10200000390110921E0610921F061092200610929F
:10201000210640E050E0BA0182E40E94390144E127
:1020200050E060E070E081E10E94390140E050E062
:10203000BA0183E10E94390140E050E0BA0182E236
:102040000E94390140E050E0BA0184E10E94390168
:1020500040E050E0BA0180E40E94390140E050E0E5
:10206000BA0182E40E94390142E050E060E070E091
:1020700081E00E94390180911B06807E80931B06BF
:1020800080911A06807E80931A060E948A018091B0
:1020900014069091150697FD03C061E00E940302AB
:1020A00080912306807F809323060E947F01809188
:1020B0002A068B7F80932A06409128065091290694
:1020C00060912A0670912B0680E70E943901809169
:1020D0002A06877F80932A06409128065091290678
:1020E00060912A0670912B0680E70E943901809149
:1020F0001B06807E856080931B060E948A0180916A
:102100001A06807E836080931A060E948A0180915D
:102110002606807F8460809326060E947F0180913E
:1021200016068B7F8093160640911606509117066F
:10213000609118067091190680E00E943901809123
:102140001E06807F816080931E0680911F06807F1F
:1021500080931F0640911E0650911F066091200635
:102160007091210682E40E94390181E08093220669
:10217000809114069091150697FD03C060E00E94BF
:102180000302909127069F7080912306807F892B00
:10219000809323060E947F0184E891E00E948D09CC
:1021A0008EE695E00E942F031816190614F00C9481
:1021B0002D19AE014F5F5F4F6A0110E000E07A0118
:1021C0000E94C50260937605709377058093780529
:1021D000909379058EE695E00E940D0397FD02C06D
:1021E0000C9418190E94C50280907605909077058E
:1021F000A0907805B0907905681979098A099B093A
:102200008090720590907305A0907405B09075054C
:10221000681579058A059B05E8F2F701E00FF11FC3
:1022200010826796FFAEEEAE6797AE014B5A5F4FD6
:1022300066E771E0C7010E94DD19009711F40C9464
:1022400029190E94BF196C015E01B1E4AB0EB11CEB
:10225000F12CE12C8501AE014B5A5F4F66E771E02E
:1022600090E080E00E94DD19009711F40C94581959
:10227000E5E0EE16F10411F40C945819FFEFEF1A93
:10228000FF0A0E94BB19D5016D937D938D939D9399
:102290005D01E1CF9E3040F42850310981E001C05A
:1022A000880F2A95EAF70ACE2E503109F7CF8BE630
:1022B00091E00E949B098DE891E00E949B0986E9CC
:1022C00091E00E949B098CE591E00E948D09D6C2A5
:1022D00066E98CE296E00E948D046FEF7FEF8FEF4E
:1022E00090E00E940108A12CB12C650186017501C6
:1022F000A60195016BEA71E081E0F3C364E68CE22C
:1023000096E00E948D046FEF7FEF8FEF90E00E94C8
:102310000108A12CB12C650186017501A60195016A
:102320006BEB71E0E9CF62E38CE296E00E948D04F2
:102330006FEF7FEF8FEF90E00E940108A12CB12C8E
:10234000650186017501A601950160ED71E0D4CFAC
:1023500069E18CE296E00E948D046FEF7FEF8FEFD2
:1023600090E00E940108A12CB12C65018601750145
:10237000A601950164EE71E0BFCF6FE08CE296E0BC
:102380000E948D046FEF7FEF8FEF90E00E940108B5
:10239000A12CB12C650186017501A601950168EF9C
:1023A00071E0AACF6AE08CE296E00E948D046FEFA4
:1023B0007FEF8FEF90E00E940108A12CB12C650106
:1023C00086017501A60195016CE072E095CF65E08C
:1023D0008CE296E00E948D046FEF7FEF8FEF90E02C
:1023E0000E940108A12CB12C650186017501A6018E
:1023F000950160E272E080CF8CE296E00E94400B93
:102400008CE296E00E942205A12CB12C6501860188
:102410007501A601950163E372E06ECF20E030E024
:102420004FEF50E070E060E082E496E00E94C1046B
:1024300020E030E04FEF50E070E060E088E596E0AB
:102440000E94C10466E982E496E00E948D0466E978
:1024500088E596E00E948D0482E496E00E942205C1
:1024600088E596E00E9422052FEF30E040E050E042
:1024700068E070E08CE296E00E94C1042FEF30E04B
:1024800040E050E064E170E08CE296E00E94C1041C
:1024900066E98CE296E00E948D048CE296E00E9450
:1024A0002205A12CB12C650186017501A6019501BB
:1024B00064E472E021CF20E030E04FEF50E070E0C4
:1024C00060E082E496E00E94C10420E030E04FEF3B
:1024D00050E070E060E088E596E00E94C10462E3AD
:1024E00082E496E00E948D0462E388E596E00E9413
:1024F0008D0482E496E00E94220588E596E00E9421
:1025000022052FEF30E040E050E068E070E08CE220
:1025100096E00E94C1042FEF30E040E050E064E11B
:1025200070E08CE296E00E94C10462E3B2CF20E04A
:1025300030E04FEF50E070E060E082E496E00E940F
:10254000C10420E030E04FEF50E070E060E088E54B
:1025500096E00E94C1046EE182E496E00E948D0440
:102560006EE188E596E00E948D0482E496E00E9488
:10257000220588E596E00E9422052FEF30E040E03A
:1025800050E068E070E08CE296E00E94C1042FEF1A
:1025900030E040E050E064E170E08CE296E00E94C0
:1025A000C1046EE176CF20E030E04FEF50E070E004
:1025B00060E082E496E00E94C10420E030E04FEF4A
:1025C00050E070E060E088E596E00E94C10464E1BC
:1025D00082E496E00E948D0464E188E596E00E9422
:1025E0008D0482E496E00E94220588E596E00E9430
:1025F00022052FEF30E040E050E068E070E08CE230
:1026000096E00E94C1042FEF30E040E050E064E12A
:1026100070E08CE296E00E94C10464E13ACF20E0D1
:1026200030E04FEF50E070E060E082E496E00E941E
:10263000C10420E030E04FEF50E070E060E088E55A
:1026400096E00E94C1046AE082E496E00E948D0454
:102650006AE088E596E00E948D0482E496E00E949C
:10266000220588E596E00E9422052FEF30E040E049
:1026700050E068E070E08CE296E00E94C1042FEF29
:1026800030E040E050E064E170E08CE296E00E94CF
:10269000C1046AE0FECE20E030E04FEF50E070E091
:1026A00060E082E496E00E94C10420E030E04FEF59
:1026B00050E070E060E088E596E00E94C10465E0CB
:1026C00082E496E00E948D0465E088E596E00E9431
:1026D0008D0482E496E00E94220588E596E00E943F
:1026E00022052FEF30E040E050E068E070E08CE23F
:1026F00096E00E94C1042FEF30E040E050E064E13A
:1027000070E08CE296E00E94C10465E0C2CE82E4F3
:1027100096E00E94400B88E596E00E94400B82E420
:1027200096E00E94220588E596E00E9422058CE250
:1027300096E00E94400B8CE296E00E942205A12CBC
:10274000B12C650186017501A601950166E572E06F
:10275000D3CDE114F10409F454C0F8016081718112
:10276000828193810E946C1ED12C77FD06C0653654
:10277000710514F064E670E0D62EEA94EF2809F4AF
:1027800045C0D80114966D917D918D919C911797BC
:102790000E946C1E8B0177FF02C010E000E08FEFFB
:1027A0000E947F07B12CA12CC501B8010E949202A2
:1027B0002D2D30E0AFEFB0E00E94271D24E630E081
:1027C00040E050E00E94A41C822F0E947F0780916D
:1027D00060058823F1F0C501B8010E94821B2B011E
:1027E0003C016D2D70E090E080E00E94821B9B0117
:1027F000AC01A12CB12C65018301720169E672E084
:102800007BCD00ED17E070E5D72EC9CF00ED17E0C6
:10281000C6CF8AE792E00E94AA0930C08FEF0E94DB
:102820007F0780916005882341F0A12CB12C6501C0
:1028300086017501A6019501E1CF8BE992E0EBCF0E
:1028400080E00E947F078091600581110AC0A12C61
:10285000B12C650186017501A60195016BEB72E053
:102860004BCD8DEC92E0D7CF84E00E94DA0121E0DD
:10287000892B09F020E0822F0E949D098EE695E0C9
:102880000E942F03181619060CF0E7C48EE695E097
:102890000E940D03F3CFA12CB12C650186017501B7
:1028A000A60195016EEE72E081E00E94960A84E036
:1028B0000E94DA0121E0892B09F020E0822F0E949A
:1028C0009D096AE0862E912C84E00E94DA013C0189
:1028D00090935F0580935E05892B09F079C061E0D4
:1028E00087E00E94030220E030E04FEF50E070E00C
:1028F00060E082E496E00E94C10420E030E04FEF07
:1029000050E070E060E088E596E00E94C10482E457
:1029100096E00E94220588E596E00E942205A12CFF
:10292000B12C650186017501A601950166E073E091
:1029300081E00E94960A20915E0530915F058091AA
:102940005C0590915D052817390771F081E06728D3
:1029500009F080E00E949D0980915E0590915F05DD
:1029600090935D0580935C0564EF71E080E090E0FA
:102970000E949202B1E08B1A910809F0A5CF60E0A5
:1029800087E00E94030282E496E00E94400B88E503
:1029900096E00E94400B82E496E00E94220588E5C2
:1029A00096E00E942205A12CB12C650186017501DB
:1029B000A601950160E273E081E00E94960A8CE234
:1029C00096E00E94400B8CE296E00E94220556CFD2
:1029D00060E087E00E94030282E496E00E94400BE0
:1029E00088E596E00E94400B82E496E00E94220572
:1029F00088E596E00E942205A12CB12C6501860194
:102A00007501A601950162E173E092CF60E081E17A
:102A10000E9403020E94C5026B017C0110E000E0ED
:102A20000E94C5026C197D098E099F0960367A4E95
:102A300081059105D8F489E00E94DA010197C9F077
:102A400061E080E10E94030283E290E00197F1F7E8
:102A500060E080E10E9403028BEC97E00197F1F7C0
:102A60000F5F1F4F0135F3EC1F07D1F687E493E0AA
:102A7000D2CE64E670E080E090E00E94920289E0AD
:102A80000E94DA010197E1F661E081E10E94030210
:102A90000CE113E061E080E10E94030283E290E038
:102AA0000197F1F760E080E10E9403028BEC97E070
:102AB0000197F1F70150110969F71092580510922A
:102AC000590510925A0510925B0581E080935705D5
:102AD000A12CB12C650186017501A601950169E360
:102AE00073E00E94960ACACE8EE593E0E114F104E9
:102AF00009F491CED8014D905D906D907C90EA9450
:102B0000EF2811F1F80164817581868197810E9417
:102B10006C1E16161706C4F4072E000C880B990BB2
:102B20000E94841B9B01AC01C301B2010E949C0660
:102B3000882379F0A12CB12C650186017501A301D0
:102B4000920168E773E0D8CB20E030E44CE155E433
:102B5000EBCF86E893E05FCEE114F10419F48DE940
:102B600093E059CED8016C9011967C9011971296F3
:102B70008C90129713969C90212C312C2101EA9471
:102B8000EF2829F0F801248035804680578020E026
:102B900030E040E85FE3B301C4010E947D1B87FD84
:102BA0005CC020E030E040EA51E4B301C4010E947F
:102BB000A21E73018401181624F4E12CF12C00EA02
:102BC00011E4A201910160E070E080E192E40E94D2
:102BD0009C06882309F44AC026E636E646EE5FE303
:102BE000B701C8010E94E31B9B01AC0160E070E0EB
:102BF00080E192E40E948D1D6B017C0120E030E0B9
:102C0000A9010E947D1B87FD2DC020E030E040E13E
:102C100052E4C701B6010E94A21E181634F4C12C5A
:102C2000D12C50E1E52E52E4F52EA2019101C7010D
:102C3000B6010E949C068823C9F0E0905805F090E8
:102C4000590500915A0510915B05A12CB12C650125
:102C50009301A40165EB73E04FCBE12CF12C00E86C
:102C60001FE3AFCFC12CD12C7601DFCFE090580508
:102C7000F090590500915A0510915B05A12CB12CDB
:102C800065019301A40167EC73E080E02ACFE114B1
:102C9000F10409F464CFD8014D905D906D907C9063
:102CA00020E030E0A901EA94EF2829F0F80124811E
:102CB00035814681578160E070E080E392E40E94B4
:102CC0009C06882381F0E0905805F090590500910A
:102CD0005A0510915B05A12CB12C6501A30192014D
:102CE0006AED73E009CBA12CB12C65018601750159
:102CF000A30192016CEE73E0C8CF10915705C0900C
:102D00005805D0905905E0905A05F0905B058FEF7B
:102D100093E00E949B0980E891E0111102C082E8D3
:102D200091E00E949B098CE094E00E949B0942E0A4
:102D3000C701B6010E94BA0984E194E00E949B0990
:102D400042E060E070E080EA91E40E94BA098DE51B
:102D500091E0BBCA80E00E94250820E030E040E01E
:102D600050E466FD33C086E00E942508913229F1C7
:102D70006B961CAE1DAE1EAE1FAE6B97A12CB12C78
:102D800040E8C42E4FEBD42E412C512C320186E06A
:102D90000E94250860FF02C0689456F8C301B20182
:102DA0000E94821B7B018C016B962CAD3DAD4EAD1C
:102DB0005FAD6B9760E274E09FCA80E00E942508D7
:102DC00020E030E040E85FE366FDD2CF6B962CAFA9
:102DD0003DAF4EAF5FAF6B978FE60E942508262F61
:102DE0002170422E512C712C612C61FF05C0226094
:102DF000422E512C712C612C62FF02C0689442F863
:102E000063FF02C0689443F864FF02C0689444F80A
:102E100065FF02C0689445F866FF02C0689446F8F2
:102E200067FF02C0689447F870FF02C0689450F8CA
:102E300071FF02C0689451F872FF02C0689452F8A2
:102E400073FF02C0689453F896FF02C0689454F868
:102E500097FF02C0689455F88F71682F70E090E07A
:102E600080E00E94821B5B016C0191CF8EE294E0B6
:102E700032E0E316F1040CF4CECCD8016D917D91D3
:102E80008D919C910E946C1EA3966CAF7DAF8EAF0E
:102E90009FAFA397A196EEADFFADA1976996FFAF47
:102EA000EEAF6997D80114964D905D906D907C902F
:102EB0001797812C912C5401B2E0EB16F10429F004
:102EC000F80180849184A284B38469962EAD3FADCD
:102ED0006997121613060CF0C6C020E030E0A90175
:102EE000C301B2010E947D1B18160CF0BCC0F0900B
:102EF0005805E090590530905A0520905B0520E078
:102F000030E040E05FE3C301B2010E94E31B26E62C
:102F100036E646EE5FE30E94E31B6F966CAF7DAF33
:102F20008EAF9FAF6F972DEC3CEC4CE45EE30E94BC
:102F30008E1D6B018C019B01AC016F2D7E2D832DAD
:102F4000922D0E947D1B87FD1CC06F962CAD3DAD60
:102F50004EAD5FAD6F9763E373E38FE092E40E9441
:102F60008D1D6B018C019B01AC016F2D7E2D832D7E
:102F7000922D0E94A21E181624F0CF2CDE2C032DB9
:102F8000122DA5019401B601C8010E949C06882358
:102F900009F482C020E030E040E05FEBC301B20101
:102FA0000E94E31B6F966CAF7DAF8EAF9FAF6F97A4
:102FB000F12CE12CA50194016F966CAD7DAD8EAD29
:102FC0009FAD6F970E943307882309F465C064E1C1
:102FD00070E080E090E00E949202A5019401C3019C
:102FE000B2010E943307882309F456C064E170E0FF
:102FF00080E090E00E949202A50194016F966CAD72
:103000007DAD8EAD9FAD6F970E943307882309F485
:1030100043C03FEFE31AF30A69964EAD5FAD69977F
:103020004E155F0539F620E030E040E05FE3C50172
:10303000B4010E94E31B4B015C0120E030E040E85A
:103040005FE30E94A21E181634F0812C912C30E808
:10305000A32E3FE3B32EA5019401B601C8010E943F
:103060009C068823C9F0A0905805B0905905C090DF
:103070005A05D0905B05A196AEADBFADA197BD013D
:10308000BB0F880B990B0E94841B9B01AC01830131
:10309000720169E674E030C987E794E0BCCB85E84B
:1030A00094E0B3E0EB16F1040CF4B5CBF8016081C9
:1030B0007181828193810E946C1EA7966CAF7DAF57
:1030C0008EAF9FAFA797A596AEACBFACA597D80122
:1030D00014966D917D918D919C9117970E946C1E15
:1030E0006B966CAF7DAF8EAF9FAF6B97F80160852D
:1030F0007185828593850E946C1E69964EAC5FAC8B
:103100006997AB2819F4519441945108052C000C8F
:1031100066087708072E000C880B990B0E94841B09
:103120005B016C01C301B20160957095809590952B
:10313000662797FD639577278827992781E10E9465
:1031400003026F964CAE5DAE6EAE7FAE6F9777FEAC
:103150000DC022273327A90124193509460957092B
:103160006F962CAF3DAF4EAF5FAF6F97A601950145
:103170006F966CAD7DAD8EAD9FAD6F970E940D06C5
:10318000A3966CAF7DAF8EAF9FAFA3970E94841BB9
:1031900020E030E047EC54E40E94FA1D9B01AC01B2
:1031A00077FC5058609158057091590580915A05E7
:1031B00090915B050E948E1D609358057093590590
:1031C00080935A0590935B056F968CAD9DADAEAD27
:1031D000BFAD6F97A3962CAD3DAD4EAD5FADA39740
:1031E00082179307A407B507E9F469964EAD5FAD62
:1031F0006997BA01550F880B990B0E94841B2B010C
:103200003C01A596AEADBFADA597BD01BB0F880B28
:10321000990B0E94841B9B01AC018301720162EC3B
:1032200074E06AC881ED94E0F6CA89EE94E0F3CACE
:103230008A30910511F40C940D11D6018D936D0116
:103240000F5F1F4F0F33110511F00C94E0100C9419
:103250000D1189EF94E00E94AA09C0906105D090F9
:103260006205E0906305F0906405C114D104E104A7
:10327000F10471F00E94C5026C197D098E099F0945
:10328000613E73498440910518F080E00E947F07F9
:10329000E0E0F0E0EF2B11F40C94D0100E943B031F
:1032A000882311F40C94D0100E9400000C94D010CC
:1032B000FEE1CF16D10408F0B8CFF601EE59F64E74
:1032C0000C944A1D57116811FC110E1287130E142D
:1032D000201434144B14151906157415AC15471623
:1032E0007D1636174F187E119311A811BD11D211FA
:1032F000E7115B129712D3120F134B13A913AA16DF
:10330000CF93DF93EC0189859A850E94481F8E81B7
:103310009F8197FD05C060E0DF91CF910C94310251
:10332000DF91CF91089588E596E00E94801982E4AC
:1033300096E00E9480198CE296E00E9480198CE150
:1033400091E0909371068093700680916E06909143
:103350006F068057964071F4E0918306F0918406E1
:1033600090818091850680958923808310926F06D5
:1033700010926E060895662777270C940C1AFC01AC
:1033800088279927E89421912032E9F3293010F019
:103390002E30C8F32B3241F02D3239F4689404C03A
:1033A0000E94041A820F911D219120532A30C0F3EC
:1033B0001EF4909581959F4F0895FA01A191B081D7
:1033C000009719F41097E1F0CD01DC01CD010D90CB
:1033D000002011F4C00113C0FB012191222319F038
:1033E0002015D9F7F3CFFB012191201519F41E9276
:1033F000119606C02223C1F70D900020A1F7D0013D
:10340000FA01A193B08308957AE0979F902D879F4A
:10341000802D910D11240895B0E0A0E0E2E1FAE1E1
:103420000C94D41C5C017B016115710519F0DB0162
:103430008D939C9385010F5F1F4FF501D0818D2FD8
:1034400090E00E945C1B6C01892BB9F5DD32B9F567
:103450000F5F1F4FD5011196DC91C1E05801F1E0DB
:10346000AF1AB10843E050E060E770E0C5010E9488
:10347000651B892B69F5680182E0C80ED11C45E007
:1034800050E06BE670E0C6010E94651B892B21F4B9
:10349000680197E0C90ED11CE114F10419F0D701BD
:1034A000CD92DC9260E070E080E89FEFC111FFC038
:1034B00060E070E080E89FE7FAC05801BBCFDB32E4
:1034C00029F485010E5F1F4FF501D181C0E0C6CF01
:1034D00043E050E068E670E0C5010E94651B892B5F
:1034E000E9F0F80110E000E020E030E0A9015F0120
:1034F000B0ED8B2E8D0E89E08815C8F19C2E689456
:1035000091F88C2F8870C2FF16C0811102C00F5F26
:103510001F4F3196D501DC91C92DE9CFE114F1049B
:1035200029F00E5F1F4FF7011183008360E070E008
:1035300080EC9FE7BCC0882311F001501109A5E081
:10354000B0E00E94C31C9B01AC01220F331F441F3B
:10355000551F280D311D411D511D283999E9390785
:10356000490799E15907A8F2C6609C2ED2CFAEEF69
:103570008A1206C0C3FD3CC09C2E689493F8C9CF44
:10358000DF7DD534A9F580818D3239F4C061DF014A
:103590001296818162E070E006C0DF018B32C1F3D8
:1035A000119661E070E080535D01A61AB70A8A3077
:1035B000F8F4E0E8CE16ECE0DE065CF4B601660F47
:1035C000771F660F771FC60ED71ECC0CDD1CC80EEA
:1035D000D11C5D01FFEFAF1ABF0A8C9180538A3076
:1035E000A8F1C4FF03C0D194C194D1080C0D1D1DD6
:1035F000C1FF09C0E114F10431F081E0A81AB1085B
:10360000D701AD92BC92CA01B9010E94821BC3705E
:10361000C33009F490584B015C0120E030E0A9016F
:103620000E947D1B882309F440C0CFE9D0E017FF3A
:1036300005C0119501951109C7E8D0E06E01B8E108
:10364000CB1AD10880E2E82EF12C0FC0D501B1CF02
:10365000FE0125913591459154910E191F09C5011F
:10366000B4010E94E31B4B015C01D501C4010E159E
:103670001F0574F72497F594E794CC16DD06A9F797
:103680008A2F880F8B2F881F8F3F49F020E030E072
:10369000A901C501B4010E947D1B811106C082E20F
:1036A00090E09093900680938F06C501B401CDB74A
:1036B000DEB7ECE00C94F01C91110C94501C80329D
:1036C00019F089508550C8F70895FB01DC0141507D
:1036D000504088F08D9181341CF08B350CF4805E65
:1036E000659161341CF06B350CF4605E861B6111D2
:1036F00071F3990B0895881BFCCF0E94BF1B08F43F
:1037000081E00895E89409C097FB3EF49095809578
:10371000709561957F4F8F4F9F4F9923A9F0F92F97
:1037200096E9BB279395F695879577956795B79515
:10373000F111F8CFFAF4BB0F11F460FF1BC06F5FFB
:103740007F4F8F4F9F4F16C0882311F096E911C00D
:10375000772321F09EE8872F762F05C0662371F02E
:1037600096E8862F70E060E02AF09A95660F771F42
:10377000881FDAF7880F9695879597F90895990F1E
:103780000008550FAA0BE0E8FEEF16161706E8072B
:10379000F907C0F012161306E407F50798F0621B4C
:1037A000730B840B950B39F40A2661F0232B242B21
:1037B000252B21F408950A2609F4A140A6958FEF40
:1037C000811D811D08950E94F61B0C946A1C0E94A5
:1037D0005C1C38F00E94631C20F0952311F00C94BF
:1037E000531C0C94591C11240C949E1C0E947B1C8D
:1037F00070F3959FC1F3950F50E0551F629FF00144
:10380000729FBB27F00DB11D639FAA27F00DB11D5C
:10381000AA1F649F6627B00DA11D661F829F2227E5
:10382000B00DA11D621F739FB00DA11D621F839F6C
:10383000A00D611D221F749F3327A00D611D231F42
:10384000849F600D211D822F762F6A2F11249F5790
:1038500050409AF0F1F088234AF0EE0FFF1FBB1F93
:10386000661F771F881F91505040A9F79E3F510552
:1038700080F00C94531C0C949E1C5F3FE4F3983E24
:10388000D4F3869577956795B795F795E7959F5FFC
:10389000C1F7FE2B880F911D9695879597F908958E
:1038A00099278827089597F99F6780E870E060E07E
:1038B00008959FEF80EC089500240A9416161706C9
:1038C00018060906089500240A9412161306140611
:1038D00005060895092E0394000C11F4882352F074
:1038E000BB0F40F4BF2B11F460FF04C06F5F7F4F2C
:1038F0008F4F9F4F089557FD9058440F551F59F013
:103900005F3F71F04795880F97FB991F61F09F3FCC
:1039100079F087950895121613061406551FF2CFF5
:103920004695F1DF08C0161617061806991FF1CF45
:1039300086957105610508940895E894BB2766276C
:103940007727CB0197F90895052E97FB1EF4009475
:103950000E94BB1C57FD07D00E94051D07FC03D029
:103960004EF40C94BB1C50954095309521953F4FDB
:103970004F4F5F4F089590958095709561957F4F5B
:103980008F4F9F4F08950E94271DA59F900DB49FB4
:10399000900DA49F800D911D112408952F923F92A8
:1039A0004F925F926F927F928F929F92AF92BF924F
:1039B000CF92DF92EF92FF920F931F93CF93DF93FB
:1039C000CDB7DEB7CA1BDB0B0FB6F894DEBF0FBE58
:1039D000CDBF09942A88398848885F846E847D84A5
:1039E0008C849B84AA84B984C884DF80EE80FD80A7
:1039F0000C811B81AA81B981CE0FD11D0FB6F8941D
:103A0000DEBF0FBECDBFED010895A1E21A2EAA1BA5
:103A1000BB1BFD010DC0AA1FBB1FEE1FFF1FA2177E
:103A2000B307E407F50720F0A21BB30BE40BF50B7B
:103A3000661F771F881F991F1A9469F76095709504
:103A4000809590959B01AC01BD01CF010895A29F87
:103A5000B001B39FC001A39F700D811D1124911D62
:103A6000B29F700D811D1124911D0895AA1BBB1BCF
:103A700051E107C0AA1FBB1FA617B70710F0A61B6E
:103A8000B70B881F991F5A95A9F780959095BC018F
:103A9000CD010895EE0FFF1F0590F491E02D0994DC
:103AA0006927962769277827872778270895002E82
:103AB000083090F0982F872F762F652F542F432FA3
:103AC000322F22270850F4CF220F331F441F551FD7
:103AD000661F771F881F991F0A95B2F7002D08955A
:103AE00097FD1094002E083098F00850232F342FA3
:103AF000452F562F672F782F892F912DF4CF1594AE
:103B00009795879577956795579547953795279515
:103B10000A95AAF71124002D08955058BB27AA270B
:103B20000E94A51D0C946A1C0E945C1C38F00E9427
:103B3000631C20F039F49F3F19F426F40C94591CAF
:103B40000EF4E095E7FB0C94531CE92F0E947B1CBC
:103B500058F3BA17620773078407950720F079F4C2
:103B6000A6F50C949D1C0EF4E0950B2EBA2FA02DFB
:103B70000B01B90190010C01CA01A0011124FF271A
:103B8000591B99F0593F50F4503E68F11A16F04015
:103B9000A22F232F342F4427585FF3CF4695379514
:103BA0002795A795F0405395C9F77EF41F16BA0BD9
:103BB000620B730B840BBAF09150A1F0FF0FBB1F87
:103BC000661F771F881FC2F70EC0BA0F621F731FD0
:103BD000841F48F4879577956795B795F7959E3F2D
:103BE00008F0B0CF9395880F08F09927EE0F9795BE
:103BF000879508950E940E1E0C946A1C0E94631CF7
:103C000058F00E945C1C40F029F45F3F29F00C94AE
:103C1000531C51110C949E1C0C94591C0E947B1C2B
:103C200068F39923B1F3552391F3951B550BBB27EB
:103C3000AA2762177307840738F09F5F5F4F220F30
:103C4000331F441FAA1FA9F335D00E2E3AF0E0E827
:103C500032D091505040E695001CCAF72BD0FE2F71
:103C600029D0660F771F881FBB1F26173707480705
:103C7000AB07B0E809F0BB0B802DBF01FF279358BD
:103C80005F4F3AF09E3F510578F00C94531C0C9412
:103C90009E1C5F3FE4F3983ED4F386957795679535
:103CA000B795F7959F5FC9F7880F911D96958795F2
:103CB00097F90895E1E0660F771F881FBB1F621711
:103CC00073078407BA0720F0621B730B840BBA0BCF
:103CD000EE1F88F7E09508950E94731E6894B11155
:103CE0000C949E1C08950E94831C88F09F5798F0A6
:103CF000B92F9927B751B0F0E1F0660F771F881FF1
:103D0000991F1AF0BA95C9F714C0B13091F00E940A
:103D10009D1CB1E008950C949D1C672F782F882777
:103D2000B85F39F0B93FCCF3869577956795B39531
:103D3000D9F73EF490958095709561957F4F8F4FA0
:103D40009F4F08950E94BF1B08F48FEF08950E94B3
:103D5000BF1B880B990B08950F931F93CF93DF938D
:103D60008230910510F482E090E0E0919306F091AA
:103D7000940630E020E0B0E0A0E0309799F42115FF
:103D8000310509F44AC0281B390B24303105D8F518
:103D90008A819B816115710589F1FB01938382837F
:103DA000FE0111C0408151810281138148175907DA
:103DB000E0F04817590799F4109761F012960C93A8
:103DC000129713961C933296CF01DF91CF911F91DA
:103DD0000F9108950093930610939406F4CF211544
:103DE000310551F04217530738F0A901DB019A0160
:103DF000BD01DF01F801C1CFEF01F9CF9093940627
:103E000080939306CDCFFE01E20FF31F8193919330
:103E10002250310939832883D7CF209191063091E0
:103E20009206232B41F4209102013091030130933B
:103E300092062093910620910001309101012115F5
:103E4000310541F42DB73EB7409104015091050171
:103E5000241B350BE0919106F0919206E217F307CF
:103E6000A0F42E1B3F0B2817390778F0AC014E5FEA
:103E70005F4F2417350748F04E0F5F1F509392068F
:103E800040939106819391939FCFF0E0E0E09CCF27
:103E9000CF93DF930097E9F0FC01329713821282EF
:103EA000A0919306B0919406ED0130E020E01097C8
:103EB000A1F420813181820F931F209191063091CE
:103EC00092062817390709F061C0F0939206E09333
:103ED0009106DF91CF910895EA01CE17DF07E8F54B
:103EE0004A815B819E0141155105B1F7E901FB83D0
:103EF000EA8349915991C40FD51FEC17FD0761F46E
:103F0000808191810296840F951FE90199838883AE
:103F1000828193819B838A83F0E0E0E012968D9109
:103F20009C9113970097B9F52D913C911197CD0174
:103F30000296820F931F20919106309192062817C6
:103F4000390739F6309751F510929406109293067E
:103F5000B0939206A0939106BCCFD383C2834081D5
:103F60005181840F951FC817D90761F44E5F5F4FC9
:103F700088819981480F591F518340838A819B8191
:103F8000938382832115310509F0B0CFF093940615
:103F9000E09393069ECFFD01DC01C0CF1382128215
:103FA000D7CFDC0101C06D9341505040E0F7089538
:103FB00010E0C0E8D0E004C0FE010E944A1D219636
:0A3FC000C138D107C9F7F894FFCF0C
:103FCA00000095068000000000007103D102FE0285
:103FDA00BE032F030D03210300000000F703D102E3
:103FEA008A04F60353046904DE030D0A004F4B3AB0
:103FFA007B2276616C756531223A317D004F4B3AEE
:10400A007B2276616C756531223A307D00455252C9
:10401A003A7B226572726F72223A2200227D006E0A
:10402A00616E00696E66006F7666004F4B3A004516
:10403A0052523A007B002C002276223A5B005D0045
:10404A00310030004F4B3A5265616479007B226D32
:10405A007367223A220048656C6C6F2066726F6D36
:10406A00205061776475696E6F21005768697465BD
:10407A00206C6967687473206F6E0057686974658D
:10408A00206C6967687473206F6E203130302500A8
:10409A005768697465206C6967687473206F6E204D
:1040AA00353025005768697465206C6967687473D0
:1040BA00206F6E20323525005768697465206C6957
:1040CA0067687473206F6E203135250057686974EC
:1040DA0065206C6967687473206F6E203130250023
:1040EA005768697465206C6967687473206F6E20FD
:1040FA003525005768697465206C69676874732090
:10410A006F666600436F6E74616374206C696768DA
:10411A007473206F6E00436F6E74616374206C69F0
:10412A0067687473206F666600456C656374726FA6
:10413A006D61676E6574206F6E004661696C6564B7
:10414A0020746F20656E657267697A6520656C6593
:10415A006374726F6D61676E6574004661696C6540
:10416A006420746F207475726E206F6E20656C65A2
:10417A006374726F6D61676E657400456C65637414
:10418A00726F6D61676E6574206F6666004661695D
:10419A006C656420746F207475726E206F66662079
:1041AA00656C656374726F6D61676E6574004C69E6
:1041BA006E6520627265616B207465737420737416
:1041CA006172746564006265616D2062726F6B650D
:1041DA006E006265616D20756E62726F6B656E004E
:1041EA004C696E6520627265616B20746573742018
:1041FA00636F6D706C657465005069706574746581
:10420A0020686F6D6564004661696C656420746F2F
:10421A0020686F6D652070697065747465004D69FA
:10422A007373696E6720706F736974696F6E20614A
:10423A007267756D656E7400506970657474652077
:10424A006D6F766564004661696C656420746F20E1
:10425A006D6F76652070697065747465004D697359
:10426A0073696E6720766F6C756D6520617267750C
:10427A006D656E7400506970657474652061737041
:10428A00697261746564004661696C656420746F63
:10429A002061737069726174650050697065747425
:1042AA00652064697370656E736564004661696C44
:1042BA00656420746F2064697370656E7365004F5E
:1042CA004B3A7B22686F6D6564223A002C22706F2C
:1042DA0073223A002C226D61785F766F6C223A0065
:1042EA0044726976657220737461747573004D69DE
:1042FA007373696E67206D697820617267756D6581
:10430A006E7473202872657065746974696F6E7350
:10431A002C20766F6C756D655F754C5B2C2076650D
:10432A006C6F636974795D2900506970657474658E
:10433A00206D69786564004661696C656420746FF4
:10434A00206D6978004D697373696E672072656CB8
:10435A006174697665206D6F766520617267756D27
:10436A00656E74732028646972656374696F6E2C54
:10437A002073746570732C2076656C6F6369747929
:10438A0029004D6F7665642072656C617469766583
:10439A00004661696C656420746F206D6F766520D4
:1043AA0072656C617469766500556E6B6E6F776EB7
:1043BA0020636F6D6D616E6400496E76616C69642D
:1043CA0020636F6D6D616E6420666F726D6174003B
:00000001FF
